:040000001BEF07F0FB
:100800000001001000000100103031323334353661
:100810003738396162636465660043616C2025780E
:100820002D0054696D3A25783A00257820005765E7
:10083000640054756500467269004D6F6E00537513
:100840006E005361740054687500414D00504D00B6
:0108500000A7
:10085200060E5C6E050E5D6E20EE6CF010EE19F069
:10086200060EDBCFE3FFE806FCE2720ED36E99ECD4
:1008720007F06FEC07F0C7EC07F0000E026E0A0EED
:10088200016E54EC07F0000EF9EC06F0D1EC07F023
:100892005CC016F0010E176E000E186E162A03D0F9
:1008A200D89017361836162EFBD75E5017165F50A3
:1008B200181617501810D8B46CD05DC016F0010E7F
:1008C200176E000E186E162A03D0D89017361836F7
:1008D200162EFBD75E5017165F50181617501810B9
:1008E200D8B40AD00E0E0B6E4D0E0C6E080E0D6EA5
:1008F200010E38EC07F009D00E0E0B6E4A0E0C6E8C
:10090200080E0D6E010E38EC07F01F0E5E145E6EBF
:100912005F6A3E0E086E000E096E2A0E0A6E080EFF
:100922000B6E6AC00CF06BC00DF0A2EC05F0480E25
:10093200086E000E096E260E0A6E080E0B6E68C057
:100942000CF069C00DF0A2EC05F0520E086E000E1C
:10095200096E220E0A6E080E0B6E5EC00CF05FC0AE
:100962000DF0A2EC05F0000E0B6E520E0C6E000E96
:100972000D6E000E38EC07F0480E096E000E0A6E7E
:1009820084EC06F03E0E096E000E0A6E84EC06F050
:1009920043D03F0E5E145E6E5F6A3E0E086E000E1E
:1009A200096E2A0E0A6E080E0B6E6AC00CF06BC03E
:1009B2000DF0A2EC05F0480E086E000E096E260E30
:1009C2000A6E080E0B6E68C00CF069C00DF0A2EC46
:1009D20005F0520E086E000E096E220E0A6E080E07
:1009E2000B6E5EC00CF05FC00DF0A2EC05F0000EC5
:1009F2000B6E520E0C6E000E0D6E000E38EC07F0F0
:100A0200480E096E000E0A6E84EC06F03E0E096E68
:100A1200000E0A6E84EC06F0030E2EEC06F0D1EC0A
:100A220007F0200E086E000E096E1A0E0A6E080EEE
:100A32000B6E60C00CF061C00DF0A2EC05F02A0E46
:100A4200086E000E096E1E0E0A6E080E0B6E64C052
:100A52000CF065C00DF0A2EC05F0340E086E000E2D
:100A6200096E2A0E0A6E080E0B6E66C00CF067C085
:100A72000DF0A2EC05F0000E0B6E200E0C6E000EB7
:100A82000D6E020E38EC07F02A0E096E000E0A6E89
:100A920084EC06F0340E096E000E0A6E84EC06F049
:100AA20031D03E0E096E080E0A6E84EC06F0EBD6CB
:100AB2003A0E096E080E0A6E84EC06F0E4D6320E87
:100AC200096E080E0A6E84EC06F0DDD62E0E096E53
:100AD200080E0A6E84EC06F0D6D6460E096E080E93
:100AE2000A6E84EC06F0CFD6360E096E080E0A6E38
:100AF20084EC06F0C8D6420E096E080E0A6E84EC2B
:100B020006F0C1D6190E00016225D96E000E000151
:100B12006321DA6EDF50460AD8B4E6D70B0AD8B49E
:100B2200C7D71E0AD8B4BDD7070AD8B4C8D7030A94
:100B3200D8B4CCD7240AD8B4DED7070AD8B4CDD7D4
:100B4200A2D60C0E0F6E000E106E74D0250E151864
:100B5200D8B409D008C0D9FF09C0DAFF15C0DFFF39
:100B6200084A092A67D0000E0E6E0AC0F6FF0BC0B3
:100B7200F7FF0A4A0B2A0800F5CF15F01550000AB4
:100B8200D8B464D0780AD8A455D00FC0D9FF10C009
:100B9200DAFFDECF12F0DDCF13F0020E0F26000EC9
:100BA2001022010E156E040E1518D8B412D015506D
:100BB200020D010EF324F66E080EF420F76E090002
:100BC200F550125C0900F5501358D8A002D0152A2E
:100BD200EAD715C014F02AD012C001F013C002F0F7
:100BE2001450020D010EF324F66E080EF420F76E77
:100BF2000900F5CF03F00A00F5CF04F05BEC06F034
:100C020001500F0B116E1150010D090EF324F66EF7
:100C1200080EF420F76E0800F5CF15F008C0D9FFD2
:100C220009C0DAFF15C0DFFF084A092A1406142892
:100C3200D8A4D2D70AC0F6FF0BC0F7FF0A4A0B2A84
:100C42000800F5CF15F01550D8A480D708C0D9FFF9
:100C520009C0DAFF000EDF6E1200046ED00EA6ECA1
:100C620007F00450BCEC07F0D10EB1EC07F0000E17
:100C720087EC07F0036E03500001626F636B000E96
:100C820087EC07F0036E03500001606F616B000E8A
:100C920087EC07F0036E03500001646F656B010E71
:100CA20087EC07F0036E03500001666F676BD1ECAF
:100CB20007F01200000E066E000E056E03500410BF
:100CC200D8B41CD0010E076E04D0D8900336043677
:100CD200072A04AEFAD7D890053606360350015CCF
:100CE20004500258D8A005D00350015E0450025AA5
:100CF2000580D89004320332072EEDD705C001F0EB
:100D020006C002F0120014D009C0F6FF0AC0F7FFB5
:100D1200F86A070EF76403D00800F55005D0F6CF45
:100D2200E9FFF7CFEAFFEF50ADEC06F0094A0A2AD5
:100D320009C0F6FF0AC0F7FFF86A070EF76403D08E
:100D42000800F55005D0F6CFE9FFF7CFEAFFEF50E4
:100D52000009D8B41200D8D7086E08C007F0F00E08
:100D620007168C500F0B07108C6E8C848C8600F04B
:100D72008C96000E026E010E016E54EC07F008C054
:100D820007F0073AF00E07168C500F0B07108C6E07
:100D92008C8600F08C96000E026E030E016E54ECEF
:100DA20007F01200086E08C007F0F00E07168C500C
:100DB2000F0B07108C6E8C948C8600F08C96000EB4
:100DC200026E010E016E54EC07F008C007F0073AFC
:100DD200F00E07168C500F0B07108C6E8C8600F0ED
:100DE2008C96000E026E030E016E54EC07F0120098
:100DF200046ED00EA6EC07F00450BCEC07F0D10E46
:100E0200B1EC07F0000E87EC07F0036E035000010F
:100E12006A6F6B6B000E87EC07F0036E03500001E4
:100E2200686F696B010E87EC07F0036E03505E6E0C
:100E32005F6A1200C80EF66E0F0EF76E000EF86EA5
:100E420000EE6CF010EE07F00900F5CFEEFFE55072
:100E5200E150FAE100EE60F00C0EEE6AE806FDE108
:100E62005F6A5E6A000EF86E000129EF04F00E6EF2
:100E7200000E0F6E020E0E6008D00B500F0B800991
:100E82000F6E0F50D3EC06F007D00B500F0BC009BA
:100E92000F6E0F50D3EC06F00CC009F00DC00AF033
:100EA20084EC06F01200000E046E000E036E0FD0EA
:100EB200000E066E000E056E065007E1A50E055CDB
:100EC200D8B003D0054A062AF7D7034A042A0150AC
:100ED200035C02500458D8B01200EAD7000E956E97
:100EE200000E026E140E016E54EC07F0020ED3ECEB
:100EF20006F0280ED3EC06F0010ED3EC06F00C0E31
:100F0200D3EC06F0060ED3EC06F01200016EC58695
:100F1200C7A0FED7C9CF02F00150D8A403D0DBECA2
:100F220007F002D0D6EC07F0E0EC07F00250120016
:100F320093809382500EC76E280EC66E000EC56E49
:100F4200130EC86E9D869E961200026EC580C5B0B5
:100F5200FED79E96C7A612000250BCEC07F0120004
:100F6200026EC582C5B2FED79E96C7A61200025077
:100F7200BCEC07F01200016E01C0C9FFE0EC07F003
:100F8200C5AC02D0010E1200020E1200010ED3EC0B
:100F920006F0000E026E030E016E54EC07F0120012
:100FA200C584C5B4FED7C7501200C58AC588C5A876
:100FB2001200FDD7C59AC588C5A81200FDD79EA606
:0D0FC200FED79E961200534D54577446738F
:020000040020DA
:08000000FFFFFFFFFFFFFFFF00
:020000040030CA
:0E00000000091F1EFF0181FF0FC00FE00F401F
:00000001FF
