:0400000090EF05F088
:10080000004B45593A2070617373776F7264004BE7
:1008100045593A2000205445000020EE11F010EE1A
:1008200023F00F0EDBCFE3FFE806FCE2000E356E8F
:10083000000E346E000E336E000E356E000E346EF8
:1008400035BE08D0355005E1040E345CD8B083D0F5
:1008500001D081D034503510D8A41AD0FE0E8C6E41
:10086000420EE82EFED700D002D023C033F083B86A
:1008700003D0FBD724C033F083BA03D0FBD725C005
:1008800033F083BC03D0FBD726C033F083AEFCD754
:1008900034043510D8A41AD0FD0E8C6E420EE82E0A
:1008A000FED700D002D027C033F083B803D0FBD7E7
:1008B00028C033F083BA03D0FBD729C033F083BC00
:1008C00003D0FBD72AC033F083AEFCD7020E341816
:1008D0003510D8A41AD0FB0E8C6E420EE82EFED72F
:1008E00000D002D02BC033F083B803D0FBD72CC08C
:1008F00033F083BA03D0FBD72DC033F083BC03D0D1
:10090000FBD72EC033F083AEFCD7030E341835105E
:10091000D8A41AD0F70E8C6E420EE82EFED700D067
:1009200002D02FC033F083B803D0FBD730C033F0F0
:1009300083BA03D0FBD731C033F083BC03D0FBD7DD
:1009400032C033F083AEFCD7344A352A35BE82D765
:10095000355001E179D733501200D388D38AD38C34
:10096000D350FC0B0209D36E38EC05F0000E2D6E4F
:10097000010E2E6E080E2F6E010E05EC05F0D7EC61
:1009800005F0949CAC9CAC8AAC98AC94B896AB8EB9
:100990000C0EAF6EACA2FED7660EAD6E0DEC04F081
:1009A000226E2250D8B420D0000E2D6E0F0E2E6E67
:1009B000080E2F6E020E05EC05F02250366E376AD7
:1009C000386A36C02AF037C02BF038C02CF058EC0B
:1009D00005F0150E2A6E080E2B6E2A502B10D8A487
:1009E000000E2C6E58EC05F0ACA2FED722C0ADFF75
:1009F000020E376E040E366EBA0EE82EFED7362E75
:100A0000FCD7372EFAD700D0C9D7306E3004D8A41F
:100A100006D02D500F0B8009C8EC05F01DD0020E3A
:100A20003018D8A406D02D500F0BC009C8EC05F023
:100A300013D0030E3018D8A406D02D500F0B9409F4
:100A4000C8EC05F009D0040E3018D8A405D02D50FC
:100A50000F0BD409C8EC05F02EC02AF02FC02BF0E4
:100A60002A502B10D8A4000E2C6E58EC05F0120062
:100A7000000E946E000E936E000E246E140E236E04
:100A800075EC05F0380EC8EC05F00C0EC8EC05F05E
:100A9000060EC8EC05F0010EC8EC05F0000E246E41
:100AA000030E236E75EC05F0800EC8EC05F0120005
:100AB00010D02AC0F6FF2BC0F7FF2CC0F8FF0800AB
:100AC000F550B9EC05F0010E2A26000E2B22000E7F
:100AD0002C222AC0F6FF2BC0F7FF2CC0F8FF08001D
:100AE000F5500009D8B41200E4D7000E266E000EAF
:100AF000256E0FD0000E286E000E276E285007E1DD
:100B0000A50E275CD8B003D0274A282AF7D7254A54
:100B1000262A2350255C24502658D8B01200EAD744
:100B2000500EF66E0B0EF76E000EF86E00EE01F032
:100B300010EE22F00900F5CFEEFFE550E150FAE1AA
:100B40003B6A3A6A396A000EF86E0001ADEF04F0B4
:100B50003738392F3435362A3132332D20303D2B7A
:100B60003132334134353642373839432A30234421
:100B70003030296E29C08AFF8B808B928B8400F0E5
:100B80008B94000E246E030E236E75EC05F012009C
:100B9000296E29C08AFF8B908B928B8400F08B94F6
:100BA000000E246E030E236E75EC05F01200F00E9D
:0A0BB0009516F00E9512F19E12004A
:020000040020DA
:08000000FFFFFFFFFFFFFFFF00
:020000040030CA
:0E0000000008181EFF0181FF0FC00FE00F4027
:00000001FF
