:04000000EDEF04F02C
:10080000004B45593A2070617373776F7264004BE7
:1008100045593A20002054450000D388D38AD38C10
:10082000D350FC0B0209D36E95EC04F0000E2D6E34
:10083000010E2E6E080E2F6E010E62EC04F034ECE9
:1008400005F0949CAC9CAC8AAC98AC94B896AB8EFA
:100850000C0EAF6EACA2FED7660EAD6E2250D8B4B1
:1008600020D0000E2D6E0F0E2E6E080E2F6E020E73
:1008700062EC04F02250316E326A336A31C02AF0E1
:1008800032C02BF033C02CF0B5EC04F0150E2A6EFC
:10089000080E2B6E2A502B10D8A4000E2C6EB5EC2F
:1008A00004F0ACA2FED722C0ADFF020E326E040EE1
:1008B000316EBA0EE82EFED7312EFCD7322EFAD783
:1008C00000D0CCD7306E3004D8A406D02D500F0BFA
:1008D000800925EC05F01DD0020E3018D8A406D0F2
:1008E0002D500F0BC00925EC05F013D0030E301866
:1008F000D8A406D02D500F0B940925EC05F009D093
:10090000040E3018D8A405D02D500F0BD40925ECB7
:1009100005F02EC02AF02FC02BF02A502B10D8A49F
:10092000000E2C6EB5EC04F01200000E946E000E5A
:10093000936E000E246E140E236ED2EC04F0380E6B
:1009400025EC05F00C0E25EC05F0060E25EC05F067
:10095000010E25EC05F0000E246E030E236ED2EC82
:1009600004F0800E25EC05F0120010D02AC0F6FF2E
:100970002BC0F7FF2CC0F8FF0800F55016EC05F06F
:10098000010E2A26000E2B22000E2C222AC0F6FF72
:100990002BC0F7FF2CC0F8FF0800F5500009D8B4B1
:1009A0001200E4D7000E266E000E256E0FD0000E4A
:1009B000286E000E276E285007E1A50E275CD8B0E0
:1009C00003D0274A282AF7D7254A262A2350255C10
:1009D00024502658D8B01200EAD70A0EF66E0A0E36
:1009E000F76E000EF86E00EE01F010EE22F0090036
:1009F000F5CFEEFFE550E150FAE1366A356A346A28
:100A0000000EF86E00010DEF04F03738392F343541
:100A1000362A3132332D20303D2B313233413435BB
:100A20003642373839432A3023443030296E29C0C2
:100A30008AFF8B808B928B8400F08B94000E246E47
:100A4000030E236ED2EC04F01200296E29C08AFF37
:100A50008B908B928B8400F08B94000E246E030E8F
:100A6000236ED2EC04F01200F00E9516F00E9512E3
:040A7000F19E1200E1
:020000040020DA
:08000000FFFFFFFFFFFFFFFF00
:020000040030CA
:0E0000000008181EFF0181FF0FC00FE00F4027
:00000001FF
