:04000000EBEF06F02C
:1008000000656C656374726F6E696357696E6773B8
:1008100000001EC022F0236A246A1D34223601E340
:1008200023802250276E21C022F0236A246A2034BC
:10083000223601E323802250266E2750D8B40BD0F5
:100840002650275CD8B00ED0275000082624226EF0
:10085000180E226407D01FC01CF020C01DF021C05C
:100860001EF0B8D02650D8B40BD02750265CD8B094
:100870000ED0265000082724226E180E226407D0BE
:100880001CC01CF01DC01DF01EC01EF0A3D0060E23
:10089000256E1EAE02D0258E00D021BE258C1D8E69
:1008A000FF0E1C16FF0E1D16000E1E16208EFF0ECC
:1008B0001F16FF0E2016000E21162650275CD8B0FA
:1008C0001ED0D8901F3620362136260627502618EF
:1008D000D8B40FD0250625C022F0070E2216D8B4B2
:1008E00008D0EFD706D0D8901E321D321C32272AEE
:1008F00000D026502718D8B424D0F5D722D02750BE
:10090000265CD8B01ED0D8901C361D361E36270661
:1009100027502618D8B40FD0250625C022F0070E80
:100920002216D8B408D0EFD706D0D8902132203282
:100930001F32262A00D026502718D8B402D0F5D767
:1009400000D025AE0CD0FF0E1C1AFF0E1D1AFF0E94
:100950001E1A010E1C26000E1D22000E1E2225ACA2
:100960000DD0FF0E1F1AFF0E201AFF0E211A010EC6
:100970001F26000E2022000E212200D0000E256E20
:100980001C501F261D5020221E50212221AE0FD0A8
:10099000FF0E1F1AFF0E201AFF0E211A010E1F262E
:1009A000000E2022000E2122010E256E00D01FC055
:1009B00001F020C002F021C003F027C004F025C0E0
:1009C00005F0CFEC05F001C01CF002C01DF003C023
:1009D0001EF000D0120003C005F0066A076A023458
:1009E000053601E3068005500F6E0F50D8A402D0E3
:1009F00039D063D0170E056E01C006F002C007F0B3
:100A000003C008F00528096E04D0D89008320732D8
:100A10000632092EFAD706500A6E028EFF0E011614
:100A2000FF0E0216000E031601500B6E02500C6EE4
:100A300003500D6E0E6A8E0E0F5E0FAE10D00F506B
:100A4000800A8F0FD8B003D00DD037D000D0D89007
:100A50000E320D320C320B320F3EF9D719D0170E71
:100A60000F6411D0000E016E000E026E000E036EB8
:100A7000000E046E22D007D0D8900B360C360D36FF
:100A80000E360F0600D00F50D8B402D0F5D700D0E4
:100A90000A50D8B409D00E1E0D1E0C1E0B6C000E91
:100AA0000C220D220E2200D00BC001F00CC002F06F
:100AB0000DC003F00EC004F000D012000FC013F000
:100AC000146A156A0E34133601E3148013501A6E3B
:100AD0001A50D8A402D00ED061D012C013F0146AFC
:100AE000156A1134133601E3148013501B6E1B502A
:100AF000D8A407D0000E0D6E000E0E6E000E0F6E05
:100B00004DD0000E176E000E186E000E196E1B50A1
:100B1000890F1A5E0FC01BF012501B1A800E1B1695
:100B20000E8EFF0E0D16FF0E0E16000E0F16118EF6
:100B3000FF0E1016FF0E1116000E1216180E166E6E
:100B400000D0D89017361836193610500D5C115059
:100B50000E5812500F58D8A007D010500D5E1150EB
:100B60000E5A12500F5A1780D8900D360E360F3687
:100B7000162EE7D700D017C001F018C002F019C038
:100B800003F01AC004F01BC005F0CFEC05F001C063
:100B90000DF002C00EF003C00FF000D012000450A0
:100BA000D8B405D0015002100310D8A40ED0000E06
:100BB000016E000E026E000E036E53D006D0042AA2
:100BC000D89003320232013200D0000E0114066EBA
:100BD000000E0214076EFE0E0314086E0650071076
:100BE0000810D8B40ED0EBD70CD0042A010E012681
:100BF000000E0222000E0322D8900332023201328C
:100C000000D0000E0114066E000E0214076EFF0ED7
:100C10000314086E065007100810D8B408D0E5D7A2
:100C200006D00406D89001360236033600D002BE44
:100C300004D0020E0460F5D700D004B002D0029EAA
:100C400000D0D8900432045003120550D8B402D01A
:100C5000038E00D001C001F002C002F003C003F017
:100C600000D01200949C948E28C009F029C00AF08C
:100C700095EC06F009C010F00AC011F00BC012F09C
:100C8000240E0D6EF40E0E6E470E0F6E5EEC05F028
:100C90000DC01CF00EC01DF00FC01EF0000E1F6E28
:100CA000800E206EBF0E216E09EC04F01CC02AF0ED
:100CB0001DC02BF01EC02CF02AC001F02BC002F08A
:100CC0002CC003F0EBEC04F00150AF6E200EAC6EC4
:100CD000900EAB6E1200000E2E6E000E2D6E720E78
:100CE000D36E250E296E800E286E32EC06F0000EB3
:100CF000056E000E046E010E066E080E076EB3EC54
:100D000006F00DD02DC001F02EC002F0E3EC06F08D
:100D10002F6E2F50F2EC06F02D4A2E2A00D02F28ED
:100D2000D8A4F0D7FFD700EF00F0000E0C6E0AAE8B
:100D300007D0096C0A1ED8B00A2A010E0C6E00D02A
:100D400009C001F00AC002F0036A8E0E046E0CC0E6
:100D500005F0CFEC05F001C009F002C00AF003C0B5
:100D60000BF000D0120012D004C001F005C002F058
:100D700006C0F6FF07C0F7FF0800F5CF03F0D0EC80
:100D800006F0044A052A064A072A00D006C0F6FFE4
:100D900007C0F7FF0800F5500009D8A4E5D71200F6
:100DA00001C0A9FF03C0A8FFA69EA69CA684F29E30
:100DB000550EA76EAA0EA76EA682F28E00D0A1A82D
:100DC000FED7A198120001C0A9FFA694A69EA680F6
:100DD000A85000D01200000EF86E080EF76E000149
:100DE0006BEF06F0016E00D09EA8FED701C0ADFFEC
:020DF0001200EF
:020000040020DA
:08000000FFFFFFFFFFFFFFFF00
:020000040030CA
:0E00000000091F1EFF0381FF0FC00FE00F401D
:00000001FF
