:04000000C6EF3CF01B
:10797A0054656D703A2078787820677261646F7305
:10798A000D007A0EF66E790EF76E000EF86E00EEA6
:10799A002DF010EE12F00900F5CFEEFFE550E150A0
:1079AA00FAE1446A436A426A416A406A3F6A0001EC
:1079BA0033EF3FF0000E0C6E0AAE06D0096C0A1EB9
:1079CA00D8B00A2A010E0C6E09C001F00AC002F0F2
:1079DA00036A8E0E046E0CC005F075EC3DF001C012
:1079EA0009F002C00AF003C00BF01200000E066E86
:1079FA0002AE06D0016C021ED8B0022A010E066E33
:107A0A0004AE04D0036C041ED8B0042A0350041038
:107A1A00D8B418D0010E056E04D0D89003360436B7
:107A2A00052A04AEFAD70350015C04500258D8A0C4
:107A3A0004D00350015E0450025AD8900432033233
:107A4A00052EF1D70650D8B404D0016C021ED8B066
:107A5A00022A01C001F002C002F01200000E0C6EF0
:107A6A000AAE06D0096C0A1ED8B00A2A010E0C6E9C
:107A7A0008AE06D0076C081ED8B0082A010E0C1AE8
:107A8A00000E0E6E000E0D6E09500A10D8B41CD0EE
:107A9A00010E0B6E04D0D89009360A360B2A0AAEAC
:107AAA00FAD7D8900D360E360950075C0A50085896
:107ABA00D8A005D00950075E0A50085A0D80D89000
:107ACA000A3209320B2EEDD70C50D8B404D00D6C03
:107ADA000E1ED8B00E2A0DC007F00EC008F0120014
:107AEA000450D8B405D0015002100310D8A40CD009
:107AFA00000E016E000E026E000E036E1200042AC2
:107B0A00D890033202320132000E0114066E000EC2
:107B1A000214076EFE0E0314086E065007100810B2
:107B2A00D8B40CD0ECD7042A010E0126000E02228A
:107B3A00000E0322D890033202320132000E0114E1
:107B4A00066E000E0214076EFF0E0314086E06502E
:107B5A0007100810D8B406D0E6D70406D890013624
:107B6A000236033602BE03D0020E0460F6D704A022
:107B7A00029ED8900432045003120550D8A4038EF2
:107B8A0001C001F002C002F003C003F012001AC0E3
:107B9A001EF01F6A206A19341E3601E31F801E5028
:107BAA00256E2550D8A407D0000E186E000E196E47
:107BBA00000E1A6E12001DC01EF01F6A206A1C34C5
:107BCA001E3601E31F801E50266E2650D8A407D009
:107BDA00000E186E000E196E000E1A6E1200000EBC
:107BEA00226E000E236E000E246E2650890F255E2B
:107BFA001AC026F01D50261A800E2616198EFF0E60
:107C0A001816FF0E1916000E1A161C8EFF0E1B16DA
:107C1A00FF0E1C16000E1D16180E216ED890223665
:107C2A00233624361B50185C1C5019581D501A58FC
:107C3A00D8A007D01B50185E1C50195A1D501A5A4A
:107C4A002280D890183619361A36212EE7D722C044
:107C5A0001F023C002F024C003F025C004F026C0BE
:107C6A0005F075EC3DF001C018F002C019F003C030
:107C7A001AF012000BC00FF0106A116A0A340F369C
:107C8A0001E310800F50126E1250D8A407D0000ED4
:107C9A00096E000E0A6E000E0B6E12000EC00FF077
:107CAA00106A116A0D340F3601E310800F50176EF7
:107CBA001750D8A407D0000E096E000E0A6E000EE7
:107CCA000B6E120017507B0F12260BC017F00E50C6
:107CDA00171A800E17160A8E0D8EFF0E0C16FF0E3F
:107CEA000D16000E0E16000E136E000E146E000E08
:107CFA00156E070E166E09A006D00C5013260D50ED
:107D0A0014220E501522D8900B320A320932D8901A
:107D1A000C360D360E36162EEED7090E166E09A043
:107D2A0006D00C5013260D5014220E501522D8904E
:107D3A000B320A320932D890153214321332162E07
:107D4A00EED713C001F014C002F015C003F012C040
:107D5A0004F017C005F075EC3DF001C009F002C04F
:107D6A000AF003C00BF0120003C005F0066A076AA6
:107D7A000234053601E3068005500F6E0F50D8A471
:107D8A0009D0000E016E000E026E000E036E000E88
:107D9A00046E1200170E056E01C006F002C007F04D
:107DAA0003C008F00528096E04D0D89008320732BB
:107DBA000632092EFAD706500A6E028EFF0E0116F7
:107DCA00FF0E0216000E031601500B6E02500C6EC7
:107DDA0003500D6E0E6A8E0E0F5E0FAE16D00F5048
:107DEA00800A8F0FD8B009D0000E016E000E026E05
:107DFA00000E036E000E046E1200D8900E320D3281
:107E0A000C320B320F3EF9D715D0170E0F640FD074
:107E1A00000E016E000E026E000E036E000E046E5E
:107E2A001200D8900B360C360D360E360F060F5050
:107E3A00D8A4F7D70A50D8B408D00E1E0D1E0C1EAF
:107E4A000B6C000E0C220D220E220BC001F00CC08E
:107E5A0002F00DC003F00EC004F01200D388D38ADA
:107E6A00D38CD350FC0B0209D36E949CAC9CAC8A85
:107E7A00AC98AC94B896AB8E0C0EAF6EC150F00BAA
:107E8A000E09C16ECF0EC116C294C296C298C29A8A
:107E9A00C050C70B1009C06EC050F80B0109C06E64
:107EAA00C08EC280C282C2B2FED7C4CF42F0436A39
:107EBA004250286E276AC3502724426E000E28209B
:107ECA00436E42C009F043C00AF0DFEC3CF009C03F
:107EDA003FF00AC040F00BC041F0000E0C6EFA0EE3
:107EEA000D6E430E0E6E3FC009F040C00AF041C04D
:107EFA000BF03FEC3EF009C018F00AC019F00BC0B5
:107F0A001AF0C00E1B6E7F0E1C6E440E1D6ECCEC5A
:107F1A003DF018C03FF019C040F01AC041F03FC010
:107F2A0001F040C002F041C003F0B9EC3EF001504C
:107F3A00446E44C007F0086A000E0A6E640E096EA9
:107F4A0033EC3DF00750300F336E000E046E640EB2
:107F5A00036E44C001F0026AFBEC3CF001C007F07A
:107F6A0002C008F0000E0A6E0A0E096E33EC3DF0EC
:107F7A000750300F346E000E046E640E036E44C058
:107F8A0001F0026AFBEC3CF001C029F002C02AF0C1
:107F9A0029C001F02AC002F0000E046E0A0E036E18
:107FAA00FBEC3CF00150300F356E000E2C6E000ECB
:107FBA002B6E2CBE06D02C5011E1110E2B5CD8B0C2
:107FCA000DD0ACA2FED72D0E2B24D96E000E2C207C
:107FDA00DA6EDF50AD6E2B4A2C2AEBD7020E286ED2
:107FEA00040E276EBA0EE82EFED7272EFCD7282EAF
:067FFA00FAD700D057D7B2
:020000040020DA
:08000000FFFFFFFFFFFFFFFF00
:020000040030CA
:0E0000000008181EFF0181FF0FC00FE00F4027
:00000001FF
