:040000000BEF07F00B
:10080000002073656C6563742031206F7220320D97
:100810000A004249454E56454E49444F0D0A004C88
:1008200045445F4F46460D0A004C45445F4F4E0D10
:030830000A0000BB
:1008340024C028F0296A2A6A2334283601E329804F
:1008440028502D6E27C028F0296A2A6A26342836B3
:1008540001E3298028502C6E2D50D8B40BD02C5095
:100864002D5CD8B00ED02D5000082C24286E180E04
:10087400286407D025C022F026C023F027C024F026
:1008840012002C50D8B40BD02D502C5CD8B00ED004
:100894002C5000082D24286E180E286407D022C07E
:1008A40022F023C023F024C024F01200060E2B6E85
:1008B40024BE2B8E27BE2B8C238EFF0E2216FF0EFA
:1008C4002316000E2416268EFF0E2516FF0E26165E
:1008D400000E27162C502D5CD8B01BD0D89025368E
:1008E400263627362C062D502C18D8B40DD02B06BE
:1008F4002BC028F0070E2816D8B406D0EFD7D8900E
:100904002432233222322D2A2C502D18D8B41FD051
:10091400F6D72D502C5CD8B01AD0D8902236233676
:1009240024362D062D502C18D8B40DD02B062BC0F0
:1009340028F0070E2816D8B406D0EFD7D89027325F
:10094400263225322C2A2C502D18D8A4F7D72BAEBA
:100954000CD0FF0E221AFF0E231AFF0E241A010ECA
:100964002226000E2322000E24222BAC0CD0FF0ED4
:10097400251AFF0E261AFF0E271A010E2526000E31
:100984002622000E2722000E2B6E225025262350ED
:1009940026222450272227AE0ED0FF0E251AFF0E42
:1009A400261AFF0E271A010E2526000E2622000EF7
:1009B4002722010E2B6E25C001F026C002F027C0AD
:1009C40003F02DC004F02BC005F0DDEC05F001C0F0
:1009D40022F002C023F003C024F0120003C005F08B
:1009E400066A076A0234053601E3068005500F6E75
:1009F4000F50D8A409D0000E016E000E026E000E36
:100A0400036E000E046E1200170E056E01C006F090
:100A140002C007F003C008F00528096E04D0D8907E
:100A2400083207320632092EFAD706500A6E028EB1
:100A3400FF0E0116FF0E0216000E031601500B6E78
:100A440002500C6E03500D6E0E6A8E0E0F5E0FAECA
:100A540016D00F50800A8F0FD8B009D0000E016E47
:100A6400000E026E000E036E000E046E1200D8908B
:100A74000E320D320C320B320F3EF9D715D0170E51
:100A84000F640FD0000E016E000E026E000E036E96
:100A9400000E046E1200D8900B360C360D360E364E
:100AA4000F060F50D8A4F7D70A50D8B408D00E1E9A
:100AB4000D1E0C1E0B6C000E0C220D220E220BC000
:100AC40001F00CC002F00DC003F00EC004F01200DF
:100AD40015C019F01A6A1B6A1434193601E31A8016
:100AE4001950206E2050D8A407D0000E136E000EAB
:100AF400146E000E156E120018C019F01A6A1B6AE3
:100B04001734193601E31A801950216E2150D8A4E4
:100B140007D0000E136E000E146E000E156E120038
:100B2400000E1D6E000E1E6E000E1F6E2150890FEA
:100B3400205E15C021F01850211A800E2116148E43
:100B4400FF0E1316FF0E1416000E1516178EFF0E49
:100B54001616FF0E1716000E1816180E1C6ED890D7
:100B64001D361E361F361650135C17501458185075
:100B74001558D8A007D01650135E1750145A1850A1
:100B8400155A1D80D8901336143615361C2EE7D707
:100B94001DC001F01EC002F01FC003F020C004F00D
:100BA40021C005F0DDEC05F001C013F002C014F023
:100BB40003C015F012000450D8B405D0015002103F
:100BC4000310D8A40CD0000E016E000E026E000EAD
:100BD400036E1200042AD890033202320132000E4E
:100BE4000114066E000E0214076EFE0E0314086E46
:100BF400065007100810D8B40CD0ECD7042A010E04
:100C04000126000E0222000E0322D8900332023283
:100C14000132000E0114066E000E0214076EFF0E60
:100C24000314086E065007100810D8B406D0E6D78F
:100C34000406D89001360236033602BE03D0020EF3
:100C44000460F6D704A0029ED89004320450031224
:100C54000550D8A4038E01C001F002C002F003C005
:100C640003F01200720ED36E000E956E800E2E6E7F
:100C7400250E2F6E000E306E000E316E7DEC06F0E8
:100C8400820E356EDE0EE82EFED7352EFCD7120E00
:100C9400026E080E036EF6EC06F018EC07F0376EE1
:100CA400310E3718D8A408D08C80290E026E080E95
:100CB400036EF6EC06F012D0320E3718D8A408D022
:100CC4008C901F0E026E080E036EF6EC06F006D032
:100CD400010E026E080E036EF6EC06F0020E366E7E
:100CE400040E356EBA0EE82EFED7352EFCD7362EFE
:100CF400FAD700D0D2D7949C948E2EC009F02FC07E
:100D04000AF030C00BF031C00CF0BAEC06F009C0A8
:100D140016F00AC017F00BC018F0240E136EF40E70
:100D2400146E470E156E6AEC05F013C022F014C061
:100D340023F015C024F0000E256E800E266EBF0E23
:100D4400276E1AEC04F022C032F023C033F024C022
:100D540034F032C001F033C002F034C003F0F0ECE0
:100D640004F00150AF6E200EAC6E900EAB6E12000C
:100D7400000E126E8E0E116E0CAE11D00C1E0B1ED8
:100D84000A1E096C000E0A220B220C22010E126E9E
:100D940006D0D8900C320B320A320932112A000ED6
:100DA40009140D6E000E0A140E6E000E0B140F6E55
:100DB400FF0E0C14106E0D500E100F101010D8A44E
:100DC400E8D709C001F00AC002F00BC003F011C05B
:100DD40004F012C005F0DDEC05F001C009F002C01A
:100DE4000AF003C00BF012000AD002C0F6FF03C0E1
:100DF400F7FF0800F55012EC07F0024A032A02C07C
:100E0400F6FF03C0F7FF0800F5500009D8B412003C
:100E1400ECD7000EF86E080EF76E000134EF06F002
:100E2400016E9EA8FED701C0ADFF12009EAAFED798
:040E3400AE501200AA
:020000040020DA
:08000000FFFFFFFFFFFFFFFF00
:020000040030CA
:0E0000000008181EFF0181FF0FC00FE00F4027
:00000001FF
