:020000040000FA
:040000007BEF06F09C
:1008000000436C61766520496E636F727265637434
:100810006100436C61766520436F72726563746139
:100820000050726573732061204B6579000020EEE3
:1008300017F010EE01F00F0EDBCFE3FFE806FCE24D
:10084000000E116E000E136E000E126E1250131079
:10085000D8A42DEF04F02FEF04F061EF04F0FE0EAA
:100860008A6E420EE82EFED700D039EF04F001C0A8
:1008700011F081A83EEF04F040EF04F037EF04F0F0
:1008800044EF04F002C011F081AA49EF04F04BEFED
:1008900004F042EF04F04FEF04F003C011F081AC1C
:1008A00054EF04F056EF04F04DEF04F05AEF04F06B
:1008B00004C011F081AE5FEF04F061EF04F058EF77
:1008C00004F012041310D8A468EF04F06AEF04F0E7
:1008D0009CEF04F0FD0E8A6E420EE82EFED700D08B
:1008E00074EF04F005C011F081A879EF04F07BEFFC
:1008F00004F072EF04F07FEF04F006C011F081AA5B
:1009000084EF04F086EF04F07DEF04F08AEF04F04A
:1009100007C011F081AC8FEF04F091EF04F088EF85
:1009200004F095EF04F008C011F081AE9AEF04F0E6
:100930009CEF04F093EF04F0020E12181310D8A4E9
:10094000A4EF04F0A6EF04F0D8EF04F0FB0E8A6EDB
:10095000420EE82EFED700D0B0EF04F009C011F02F
:1009600081A8B5EF04F0B7EF04F0AEEF04F0BBEFF1
:1009700004F00AC011F081AAC0EF04F0C2EF04F045
:10098000B9EF04F0C6EF04F00BC011F081ACCBEF6F
:1009900004F0CDEF04F0C4EF04F0D1EF04F00CC08C
:1009A00011F081AED6EF04F0D8EF04F0CFEF04F0F1
:1009B000030E12181310D8A4E0EF04F0E2EF04F0D5
:1009C00014EF05F0F70E8A6E420EE82EFED700D027
:1009D000ECEF04F00DC011F081A8F1EF04F0F3EF9B
:1009E00004F0EAEF04F0F7EF04F00EC011F081AA72
:1009F000FCEF04F0FEEF04F0F5EF04F002EF05F079
:100A00000FC011F081AC07EF05F009EF05F000EF22
:100A100005F00DEF05F010C011F081AE12EF05F0FA
:100A200014EF05F00BEF05F0124A132A13BE22EF64
:100A300005F0135009E1040E125CD8A022EF05F076
:100A400024EF05F026EF04F011501200720ED36E61
:100A5000B3EC06F0E3EC06F0000E056E210E066E18
:100A6000080E076E000E5BEC06F0C00E33EC06F0CD
:100A700017EC04F0166E1650D8B441EF05F043EFB2
:100A800005F04FEF05F016500BEC06F02D0E2C2460
:100A9000D96EDA6A000EDA2216C0DFFF2C2A020EA7
:100AA000156E040E146EBA0EE82EFED7142EFCD767
:100AB000152EFAD700D0040E2C6461EF05F063EF19
:100AC00005F038EF05F02D0E016E000E026E270EB8
:100AD000036E000E046E000E066E040E056EA4EC8E
:100AE00005F001500210D8A478EF05F07AEF05F078
:100AF00087EF05F0CDEC06F0000E056E120E066EC7
:100B0000080E076E000E5BEC06F090EF05F0000E8D
:100B1000056E010E066E080E076E000E5BEC06F009
:100B2000150E156E4B0E146EBE0EE82EFED7142E4B
:100B3000FCD7152EFAD700D0CDEC06F0000E2C6EA7
:100B40002CEF05F000EF00F001C009F002C00AF040
:100B500003C00BF004C00CF00506D8A0060605285B
:100B600006E10628D8A4B7EF05F0B9EF05F0C6EF07
:100B700005F0000E026E000E016E0AEF06F0094A43
:100B80000A2A0B4A0C2A0506D8A0060609C0D9FF76
:100B90000AC0DAFFDF50D8B4D0EF05F0D2EF05F08D
:100BA000F8EF05F00BC0D9FF0CC0DAFFDF50D8B466
:100BB000DCEF05F0DEEF05F0F8EF05F0055006106C
:100BC000D8B4E5EF05F0E7EF05F0F8EF05F00BC05E
:100BD000D9FF0CC0DAFF09C0E1FF0AC0E2FFDE5016
:100BE000E618D8B4F6EF05F0F8EF05F0BFEF05F022
:100BF00009C0D9FF0AC0DAFFDF50076E0BC0D9FF6A
:100C00000CC0DAFFDF50086E0850075C016E026A04
:100C1000D8A002061200026E02C001F0F00E01160A
:100C20008C500F0B01108C6E8C808C8200F08C929B
:100C3000030E016E980EE82EFED7012EFCD702C0DF
:100C400001F0013AF00E01168C500F0B01108C6E62
:100C50008C8200F08C92080E016ECA0EE82EFED730
:100C6000012EFCD71200026E02C001F0F00E011638
:100C70008C500F0B01108C6E8C908C8200F08C923B
:100C8000030E016E980EE82EFED7012EFCD702C08F
:100C900001F0013AF00E01168C500F0B01108C6E12
:100CA0008C8200F08C92080E016ECA0EE82EFED7E0
:100CB000012EFCD71200086E020E086062EF06F0EB
:100CC00064EF06F06DEF06F005500F0B8009096E1A
:100CD000095033EC06F074EF06F005500F0BC00915
:100CE000096E095033EC06F006C003F007C004F0AB
:100CF00098EC06F01200B00EF66E0D0EF76E000EB8
:100D0000F86E00EE17F010EE15F00900F5CFEEFFCB
:100D1000E550E150FAE1316A306A2F6A2E6A2D6A95
:100D20002C6A000EF86E080EF76E000126EF05F033
:100D3000A4EF06F003C0F6FF04C0F7FF0800F5506B
:100D40000BEC06F0034A042A03C0F6FF04C0F7FFC9
:100D50000800F5500009D8A4B0EF06F0B2EF06F095
:100D60009AEF06F01200000E956E270E036EF50E38
:100D7000E82EFED7032EFCD700F0020E33EC06F06F
:100D8000280E33EC06F0010E33EC06F00C0E33ECBB
:100D900006F0060E33EC06F01200010E33EC06F0FE
:100DA000080E036ECA0EE82EFED7032EFCD71200E3
:100DB0003132334134353642373839432A302344CF
:050DC000323032310069
:0C0DC600F00E9316F00E9312F19E120036
:020000040020DA
:08000000FFFFFFFFFFFFFFFF00
:020000040030CA
:0E0000000008191EFF0181FF0FC00FE00F4026
:00000001FF
