:0400000007EF00F016
:10000800198259ED00F01DEF01F0F29ED59AD596B0
:10001800D550F80B0109D56ED59CDA0ED66E0B0EAD
:10002800D76ED58E000E956E000E8C6E9288F29467
:10003800F28AF28CF28E18C00FF0106A000E126E5F
:100048000A0E116EE5EC00F00F50100F8C6E070EC3
:10005800176E7D0EE82EFED7172EFCD700F018C0BD
:100068000FF0106A000E126E0A0E116EA3EC00F06B
:100078000F50200F8C6E070E176E7D0EE82EFED7E0
:10008800172EFCD700F080B8D6D7110E176E3A0E8F
:10009800E82EFED7172EFCD700D0000E186EDA0E09
:1000A800D66E0B0ED76EF294C6D70600FACF01F0C3
:1000B800FBCF02F0E9CF03F0EACF04F0E1CF05F07F
:1000C800E2CF06F0D9CF07F0DACF08F0F3CF09F086
:1000D800F4CF0AF0F6CF0BF0F7CF0CF0F8CF0DF015
:1000E800F5CF0EF0F2BAF2A40CD0182A640E181844
:1000F800D8A402D0000E186EDA0ED66E0B0ED76E8C
:10010800F2940EC0F5FF0DC0F8FF0CC0F7FF0BC04E
:10011800F6FF0AC0F4FF09C0F3FF08C0DAFF07C002
:10012800D9FF06C0E2FF05C0E1FF04C0EAFF03C033
:10013800E9FF02C0FBFF01C0FAFF19921100000E8F
:10014800146E12AE06D0116C121ED8B0122A010E0F
:10015800146E10AE06D00F6C101ED8B0102A010E07
:10016800141A000E166E000E156E11501210D8B427
:100178001CD0010E136E04D0D89011361236132AF3
:1001880012AEFAD7D8901536163611500F5C1250A9
:100198001058D8A005D011500F5E1250105A158073
:1001A800D89012321132132EEDD71450D8B404D08F
:1001B800156C161ED8B0162A15C00FF016C010F010
:1001C8001200000E146E10AE06D00F6C101ED8B0C0
:1001D800102A010E146E12AE04D0116C121ED8B083
:1001E800122A11501210D8B418D0010E136E04D070
:1001F800D89011361236132A12AEFAD711500F5C66
:1002080012501058D8A004D011500F5E1250105A36
:10021800D89012321132132EF1D71450D8B404D01A
:100228000F6C101ED8B0102A0FC00FF010C010F0BD
:0E0238001200186A19901992000109EF00F0E7
:020000040020DA
:08000000FFFFFFFFFFFFFFFF00
:020000040030CA
:0E000000000C181EFF0181FF0FC00FE00F4023
:00000001FF
