:0400000007EF00F016
:10000800258209ED00F06DEF01F00600FACF0DF042
:10001800FBCF0EF0E9CF0FF0EACF10F0E1CF11F0EF
:10002800E2CF12F0D9CF13F0DACF14F0F3CF15F0F6
:10003800F4CF16F0F6CF17F0F7CF18F0F8CF19F085
:10004800F5CF1AF09DB09EA09BD0D80ECF6EEF0EC4
:10005800CE6E222A640E2218D8A484D02450D8B494
:1000680081D0000E226E204A212A100E20187AE133
:100078000E0E2118D8A476D0000E216E000E206E28
:1000880071D0000E046E3C0E036E20C001F021C03A
:1000980002F023EC01F001C01BF002C01CF01BC0F1
:1000A80001F01CC002F0000E046E0A0E036E23EC71
:1000B80001F02338F00B01248C6E010E51D0000E94
:1000C800046E3C0E036E20C001F021C002F023EC48
:1000D80001F001C008F002C009F0000E0B6E0A0E14
:1000E8000A6E4CEC01F02338F00B08248C6E020EDB
:1000F80037D0000E0B6E3C0E0A6E20C008F021C0EF
:1001080009F04CEC01F008C001F009C002F0000E43
:10011800046E0A0E036E23EC01F02338F00B012461
:100128008C6E030E1DD0000E0B6E3C0E0A6E20C0A6
:1001380008F021C009F04CEC01F008C01DF009C01E
:100148001EF01DC008F01EC009F0000E0B6E0A0E4E
:100158000A6E4CEC01F02338F00B08248C6E000E6C
:10016800236E0DD02350000AD8B48BD7010AD8B417
:10017800A6D7030AD8B4BDD7010AD8B4D4D79E905D
:100188001AC0F5FF19C0F8FF18C0F7FF17C0F6FF2F
:1001980016C0F4FF15C0F3FF14C0DAFF13C0D9FF6F
:1001A80012C0E2FF11C0E1FF10C0EAFF0FC0E9FF73
:1001B8000EC0FBFF0DC0FAFF25921100F29ECD8EF6
:1001C800CD92CD50CF0B1009CD6ED80ECF6EEF0E5D
:1001D800CE6ECD809E909D80F28CF28E000E956E34
:1001E800928092820F0EC16E070EB46E80B017D047
:1001F800820E1F6EDE0EE82EFED71F2EFCD724506F
:10020800D8A402D0010E01D0000E246E80A0FED723
:10021800820E1F6EDE0EE82EFED71F2EFCD780B290
:10022800E5D7820E1F6EDE0EE82EFED71F2EFCD7F6
:10023800000E216E000E206E000E246ED7D7000E21
:10024800066E000E056E03500410D8B41CD0010EC3
:10025800076E04D0D89003360436072A04AEFAD7BE
:10026800D890053606360350015C04500258D8A0D1
:1002780005D00350015E0450025A0580D89004321C
:100288000332072EEDD705C001F006C002F01200B8
:100298000A500B10D8B418D0010E0C6E04D0D890A8
:1002A8000A360B360C2A0BAEFAD70A50085C0B50EC
:1002B8000958D8A004D00A50085E0B50095AD890A3
:1002C8000B320A320C2EF1D708C008F009C009F029
:1002D8001200246A236A226A216A206A25902592DC
:0A02E800000EF86E0001E2EF00F0D6
:020000040020DA
:08000000FFFFFFFFFFFFFFFF00
:020000040030CA
:0E000000000C181EFF0181FF0FC00FE00F4023
:00000001FF
