:0400000007EF00F016
:0A0008005082F9ED10F093EF1AF0AA
:1008000000010000000A00000064000000E803008E
:100810000010270000A086010040420F008096983B
:100820000000E1F50500CA9A3B00803F002041002E
:10083000C842007A44401C4650C347247449971864
:100840004BBCBE4C6B6E4E03155079AD60F34971D5
:1008500000803FCDCC3DD7233C12833AB7D138C678
:100860002737388635C0D633CC2B32708930E7DB5A
:100870002EE53C1E42A20D5554432054696D653A45
:10088000200025643A25643A2564002564256343E5
:100890002020004C6F6E673A20004C61743A2000B3
:1008A000416C743A2000252E30356600252E3266C4
:0708B000000D0A002C0000FE
:1008B8006D0E0001806F000E0001816F32EF09F0AC
:1008C800250E00019319D8B40BD069C0D9FF6AC0AE
:1008D800DAFF93C0DFFF0001694B6A2B32EF09F0A2
:1008E800000E0001836F000E826F6BC0F6FF6CC0B4
:1008F800F7FF0800F5502E0AD8A434D00001838DE4
:1009080000016B4B6C2B000E0001926F000E916F73
:100918001ED091C01EF092C01FF0000E216E0A0E6C
:10092800206EECEC1AF06BC0F6FF6CC0F7FF080005
:10093800F5501E26000E1F22D00E1E240001916FB6
:10094800FF0E1F200001926F00016B4B6C2B6BC0D8
:10095800F6FF6CC0F7FF0800F55034EC1BF0D8A088
:1009680056D0D7D7000E0001926F000E916F00018C
:1009780083894DD00001838566D000019151000123
:100988009211D8B41FD000017E510001915D000181
:100998007F5100019259D8B015D091C07EF092C015
:1009A8007FF010D07CC0D9FF7DC0DAFF69C0E1FFBD
:1009B8006AC0E2FFDFCFE7FF00017C4B7D2B00011F
:1009C800694B6A2B00017E07D8A07F0700017E29AA
:1009D800E9E100017F29D8B432EF09F0E3D780C0FC
:1009E800D9FF81C0DAFFDF500001936F020E0001CA
:1009F8008027000E8123930E00017C6F000E0001FA
:100A08007D6F000E00017F6F010E7E6FB6D76BC041
:100A1800F6FF6CC0F7FF00016B4B6C2B0800F5CF9D
:100A280093F000019351000AD8B441EF09F0630A2A
:100A3800D8B4D5D7070AD8B406D0020AD8B49AD7FA
:100A48000F0AD8A4D8D7070E00018315D8B415D338
:100A5800000183A905D0000E0001926F060E916F68
:100A680080C0D9FF81C0DAFFDECF8EF0DECF8FF0F5
:100A7800DDCF90F0030E00018027000E81230001D6
:100A880090AF11D08EC033F08FC034F090C035F0E5
:100A9800FFEC1AF033C08EF034C08FF035C090F000
:100AA800030E00018213000E0001856F000E846F93
:100AB80000018E5100018F1100019011D8B491D01E
:100AC800820E0001736FFF0E0001746F8EC075F007
:100AD8008FC076F090C077F091C078F0100E06D0F5
:100AE8000001D8907833773376337533E82EF8D70A
:100AF80000017551000173250001846F000E00018B
:100B080074210001856F00018407D8A0850784C07F
:100B18001EF085C01FF0000E216E030E206EECEC57
:100B28001AF01EC084F01FC085F084C016F085C07E
:100B380017F0000E196E0A0E186E5DEC17F016C04D
:100B480084F017C085F0000185AF04D00001840748
:100B5800D8A0850700018451000848EC09F033C08B
:100B680086F034C087F035C088F086C024F087C08E
:100B780025F088C026F08EC027F08FC028F090C0DE
:100B880029F0F1EC14F024C086F025C087F026C0C7
:100B980088F086C010F087C011F088C012F0000EEF
:100BA800136E800E146E3F0E156ED3EC16F0D8B08F
:100BB80005D000018407D8A0850713D086C010F09F
:100BC80087C011F088C012F0000E136E200E146E4C
:100BD800410E156ED3EC16F0D8A003D00001844B5B
:100BE800852B000192BF08D0000192511DE10D0E26
:100BF8000001915DD8B018D08EC03DF08FC03EF096
:100C080090C03FF000019151D7EC0EF033C040F096
:100C180034C041F035C042F0FAEC0FF03DC08EF020
:100C28003EC08FF03FC090F0000185BF08D00001A2
:100C3800855126E10A0E0001845DD8B021D000015B
:100C48008E5100018F1100019011D8B45BD08EC075
:100C58003AF08FC03BF090C03CF05EEC13F03A5095
:100C68003B103C103D10D8A44DD0000185BF4AD0A0
:100C78000001855105E1020E0001845DD8A042D033
:100C880086C010F087C011F088C012F0700E136E85
:100C9800890E146E400E156ED3EC16F0D8B003D042
:100CA8000001F70E02D00001F80E8427FF0E8523FD
:100CB8000001845148EC09F033C086F034C087F055
:100CC80035C088F08EC010F08FC011F090C012F0BF
:100CD80086C013F087C014F088C015F031EC12F00C
:100CE80010C08AF011C08BF012C08CF013C08DF0C8
:100CF800000E00018E6F000E00018F6F000E0001C4
:100D0800906F33D08EC03AF08FC03BF090C03CF06B
:100D18005EEC13F03AC08AF03BC08BF03CC08CF01C
:100D28003DC08DF08EC063F08FC064F090C065F058
:100D38008AC018F08BC019F08CC01AF08DC01BF057
:100D48003AEC19F018C066F019C067F01AC068F0DC
:100D580016EC1AF063C08EF064C08FF065C090F096
:100D6800000E0001856F000E846F010E0001936F65
:100D78000A0E00019319D8B41ED000019351040D36
:100D8800010EF324F66E080EF420F76E0900F550F4
:100D980000018A5D0900F55000018B590900F550E2
:100DA80000018C590900F55000018D59D8A003D0D5
:100DB8000001932BDDD7030E000182150001736F2C
:100DC800000E000183150001746F000173510001CA
:100DD8007411D8B454D069C0D9FF6AC0DAFF2D0E97
:100DE8004CD00001694B6A2B4AD08AC019F08BC0DD
:100DF8001AF08CC01BF08DC01CF000019351040D3B
:100E0800010EF324F66E080EF420F76E0900F5CFF4
:100E18001DF00900F5CF1EF00900F5CF1FF00A00FC
:100E2800F5CF20F09FEC17F019C086F01AC087F0B4
:100E38001BC088F01CC089F086C010F087C011F074
:100E480088C012F089C013F00A0E146E000E156ED9
:100E5800000E166E000E176E07EC19F010C086F023
:100E680011C087F012C088F013C089F000018651C4
:100E7800300F69C0D9FF6AC0DAFFDF6EB2D7000150
:100E8800930700019329D8B40ED0AFD769C0D9FF12
:100E98006AC0DAFF300EDF6E0001694B6A2B000171
:100EA8008407D8A08507000185BF07D000018551B8
:100EB800EDE100018405D8B0E9D7000192BF0CD05C
:100EC8000001925105E1090E0001915DD8A004D0FE
:100ED800080E0001936F02D091C093F00001935166
:100EE8000001915F000E000193BFFF0E0001925BAD
:100EF800000193510001D8B409D069C0D9FF6AC074
:100F0800DAFF2E0EDF6E0001694B6A2B0001935148
:100F180048EC09F033C079F034C07AF035C07BF082
:100F28008EC027F08FC028F090C029F079C024F037
:100F38007AC025F07BC026F0F1EC14F024C03AF01A
:100F480025C03BF026C03CF05EEC13F03AC08AF0B6
:100F58003BC08BF03CC08CF03DC08DF073D08AC094
:100F680019F08BC01AF08CC01BF08DC01CF000016A
:100F78009351040D010EF324F66E080EF420F76E5B
:100F88000900F5CF1DF00900F5CF1EF00900F5CFD7
:100F98001FF00A00F5CF20F09FEC17F019C086F07B
:100FA8001AC087F01BC088F01CC089F086C010F0FA
:100FB80087C011F088C012F089C013F00A0E146EB1
:100FC800000E156E000E166E000E176E07EC19F067
:100FD80010C086F011C087F012C088F013C089F0E5
:100FE80000018651300F69C0D9FF6AC0DAFFDF6E91
:100FF8000001694B6A2B8AC010F08BC011F08CC0BD
:1010080012F08DC013F000019351040D010EF3246A
:10101800F66E080EF420F76E0900F5CF14F00900FB
:10102800F5CF15F00900F5CF16F00A00F5CF17F047
:1010380007EC19F010C08AF011C08BF012C08CF0C8
:1010480013C08DF00001930700019329D8B40ED086
:1010580086D769C0D9FF6AC0DAFF300EDF6E00019B
:10106800694B6A2B00019107D8A0920700019151A2
:1010780000019211D8B4F2D0ECD780C0D9FF81C05A
:10108800DAFFDECF8AF0DDCF8BF00001000E8BBFD8
:10109800FF0E8C6F8D6F020E00018027000E8123DA
:1010A80000018DAF0CD0030E0001821300018D1FCB
:1010B8008C1F8B1F8A6D000E8B238C238D230001C0
:1010C800915100019211D8A40DD000018A5100015C
:1010D8008B1100018C1100018D11D8A403D00001DF
:1010E800914B922B010E0001936F0A0E0001931988
:1010F800D8B41ED000019351040D010EF324F66EEE
:10110800080EF420F76E0900F55000018A5D090009
:10111800F55000018B590900F55000018C59090060
:10112800F55000018D59D8A003D00001932BDDD7CD
:10113800800E000193BF7F0E0001736F0001915173
:101148000001935D00019251800A00017359D8B0E3
:1011580003D091C093F018D000019251800A000189
:10116800736F000193510001915D800E000193BFE0
:101178007F0E00017359D8B007D0000193510001C8
:10118800916F926B91BF9207030E000182150001C7
:10119800736F000E000183150001746F0001735115
:1011A80000017411D8B44FD069C0D9FF6AC0DAFF02
:1011B8002D0EDF6E45D091C073F092C074F000011F
:1011C800D890733774370001D89073377437010E8D
:1011D80000017325F66E080E7421F76E0900F5CF2D
:1011E8001DF00900F5CF1EF00900F5CF1FF00A0029
:1011F800F5CF20F08AC019F08BC01AF08CC01BF014
:101208008DC01CF09FEC17F019C010F01AC011F037
:101218001BC012F01CC013F00A0E146E000E156EDF
:10122800000E166E000E176E07EC19F01050300FF6
:101238000001936F69C0D9FF6AC0DAFF93C0DFFF6E
:101248000001694B6A2B00019107D8A092070001A1
:101258009129B1E100019229D8A4ADD76BC0F6FF5E
:101268006CC0F7FF00016B4B6C2B0800F5CF93F0B7
:1012780000019351D8A464EF04F069C0D9FF6AC093
:10128800DAFF000EDF6E1200396E39AEFBD0396C12
:101298003950800A120FD8A091D0000E216E030E8B
:1012A800206E000E196E0A0E186E000E136E640E74
:1012B800126E3950106E116A10BE1106CFEC18F07C
:1012C80010C016F011C017F05DEC17F0090E1624C7
:1012D8001E6E000E17201F6EECEC1AF0500E1E2426
:1012E800F66E080E1F20F76E0900F5CF27F00900EB
:1012F800F5CF28F00A00F5CF29F0000E196E640E1C
:10130800186E3950166E176A16BE17065DEC17F080
:10131800120E16241E6E000E17201F6E000E216E70
:10132800030E206EECEC1AF0500E1E24F66E080E1A
:101338001F20F76E0900F5CF24F00900F5CF25F03E
:101348000A00F5CF26F0F1EC14F024C036F025C0E1
:1013580037F026C038F036C024F037C025F038C042
:1013680026F0000E216E030E206E000E136E0A0E7C
:10137800126E3950106E116A10BE1106CFEC18F0BB
:1013880010C01EF011C01FF0ECEC1AF0500E1E2415
:10139800F66E080E1F20F76E0900F5CF27F009003A
:1013A800F5CF28F00A00F5CF29F0F1EC14F024C0AD
:1013B80033F025C034F026C035F012003950800AC9
:1013C800750FD8A04DD0000E196E0A0E186E395040
:1013D800166E176A16BE17065DEC17F0090E16246E
:1013E8001E6E000E17201F6E000E216E030E206E5B
:1013F800ECEC1AF0500E1E24F66E080E1F20F76E45
:101408000900F5CF24F00900F5CF25F00A00F5CF43
:1014180026F0000E216E030E206E000E136E0A0ECB
:10142800126E3950106E116A10BE1106CFEC18F00A
:1014380010C01EF011C01FF0ECEC1AF0500E1E2464
:10144800F66E080E1F20F76E0900F5CF27F0090089
:10145800F5CF28F00A00F5CF29F0F1EC14F0A7D762
:101468003950030D500EF324F66E080EF420F76E73
:101478000900F5CF33F00900F5CF34F00A00F5CFB5
:1014880035F012003950800A120FD8A091D0000E02
:10149800216E030E206E000E196E0A0E186E000ED5
:1014A800136E640E126E3950106E116A10BE11065A
:1014B800CFEC18F010C016F011C017F05DEC17F063
:1014C800090E16241E6E000E17201F6EECEC1AF083
:1014D800290E1E24F66E080E1F20F76E0900F5CFA0
:1014E80027F00900F5CF28F00A00F5CF29F0000E03
:1014F800196E640E186E3950166E176A16BE1706E6
:101508005DEC17F0120E16241E6E000E17201F6ECB
:10151800000E216E030E206EECEC1AF0290E1E242C
:10152800F66E080E1F20F76E0900F5CF24F00900AB
:10153800F5CF25F00A00F5CF26F0F1EC14F024C021
:1015480036F025C037F026C038F036C024F037C052
:1015580025F038C026F0000E216E030E206E000E16
:10156800136E0A0E126E3950106E116A10BE1106F3
:10157800CFEC18F010C01EF011C01FF0ECEC1AF000
:10158800290E1E24F66E080E1F20F76E0900F5CFEF
:1015980027F00900F5CF28F00A00F5CF29F0F1EC83
:1015A80014F024C033F025C034F026C035F0120002
:1015B8003950800A750FD8A04DD0000E196E0A0E4A
:1015C800186E3950166E176A16BE17065DEC17F0BE
:1015D800090E16241E6E000E17201F6E000E216EB7
:1015E800030E206EECEC1AF0290E1E24F66E080E7F
:1015F8001F20F76E0900F5CF24F00900F5CF25F07C
:101608000A00F5CF26F0000E216E030E206E000EA4
:10161800136E0A0E126E3950106E116A10BE110642
:10162800CFEC18F010C01EF011C01FF0ECEC1AF04F
:10163800290E1E24F66E080E1F20F76E0900F5CF3E
:1016480027F00900F5CF28F00A00F5CF29F0F1ECD2
:1016580014F0A7D73950030D290EF324F66E080E9F
:10166800F420F76E0900F5CF33F00900F5CF34F018
:101678000A00F5CF35F0120038503910D8B40BD025
:1016880038C0D9FF39C0DAFF36C0DEFF37C0DDFF0A
:1016980002D0364A372A36C0D9FF37C0DAFFDF50C2
:1016A8003B6E3B50D9EC1AF0D8B0F3D7000E3C6E25
:1016B8002D0E3B18D8A403D0010E3C6E04D02B0E7F
:1016C8003B18D8A402D0364A372A000E3B6E000ECB
:1016D8003E6E000E3F6E000E406E000E416E000E14
:1016E8003D6E3CB80AD036C0D9FF37C0DAFF2E0E9F
:1016F800DE18D8A402D03C883CD036C0D9FF37C009
:10170800DAFFDF5034EC1BF0D8A036D03C82080E4C
:101718003B18D8B42CD03CB83D063B2A3EC010F04C
:101728003FC011F040C012F041C013F00A0E146E11
:10173800000E156E000E166E000E176EC2EC19F034
:1017480010C03EF011C03FF012C040F013C041F08D
:1017580036C0D9FF37C0DAFFDF503A6ED00E3A26CE
:101768003A503E26000E3F224022412202D03CA899
:101778003D2A364A372AB5D7000E3B6E36C0D9FF08
:1017880037C0DAFF650EDE18D8B408D036C0D9FFE6
:1017980037C0DAFF450EDE18D8A45ED0364A372A9D
:1017A80036C0D9FF37C0DAFF2D0EDE18D8A402D014
:1017B8003C8608D036C0D9FF37C0DAFF2B0EDE18BA
:1017C800D8A402D0364A372A36C0D9FF37C0DAFF44
:1017D800300EDE18D8B4F6D736C0D9FF37C0DAFFD6
:1017E800DF5034EC1BF0D8A035D036C0D9FF37C055
:1017F800DAFFDF50D00F3B6E364A372A36C0D9FFA2
:1018080037C0DAFFDF5034EC1BF0D8A023D036C045
:10181800D9FF37C0DAFFDF503A6E3B500A0DF3505C
:101828003A24D00F3B6E364A372A36C0D9FF37C024
:10183800DAFFDF5034EC1BF0D8A00CD036C0D9FF4B
:1018480037C0DAFFDF503A6E3B500A0DF3503A24A6
:10185800D00F3B6E3CB63B6C3B503D2638503910A0
:10186800D8A43CA208D038C0D9FF39C0DAFF36C0A6
:10187800DEFF37C0DDFF3EC018F03FC019F040C0A2
:101888001AF041C01BF05AEC18F018C03EF019C00D
:101898003FF01AC040F03E503F104010D8A407D087
:1018A800000E366E000E376E000E386E12003DAE1A
:1018B80056D03D6C16D03EC022F03FC023F040C049
:1018C80024F0030E256E150E266E500E276E6BEC57
:1018D80015F022C03EF023C03FF024C040F0F60EC1
:1018E8003D263D50800A760FD8A016D0E4D73EC0DA
:1018F80022F03FC023F040C024F0000E256E200ED9
:10190800266E410E276E6BEC15F022C03EF023C008
:101918003FF024C040F03D063D50D8A4E8D73EC073
:1019280010F03FC011F040C012F0000E136E800E90
:10193800146E000E156ED3EC16F0D8B061D03CA032
:1019480007D0000E366E800E376E800E386E12008D
:10195800000E366E800E376E000E386E12003D5047
:10196800800A7F0FD8B017D04BD03EC024F03FC0BC
:1019780025F040C026F0030E276E150E286E500E77
:10198800296EF1EC14F024C03EF025C03FF026C0CB
:1019980040F0F60E3D260A0E3D60E7D715D03EC052
:1019A80024F03FC025F040C026F0000E276E200E20
:1019B800286E410E296EF1EC14F024C03EF025C0CB
:1019C8003FF026C040F03D063D50D8A4E8D7FF0EB2
:1019D800106E7F0E116E7F0E126E3EC013F03FC068
:1019E80014F040C015F0D3EC16F0D8B009D03CB0D4
:1019F800A8D7000E366E800E376E000E386E1200B5
:101A08003CA00ED03EC033F03FC034F040C035F0AB
:101A1800FFEC1AF033C03EF034C03FF035C040F060
:101A28003EC036F03FC037F040C038F01200720EAA
:101A3800D36E3CEC1AF0F28EF28C9D8A800E000177
:101A4800666F250E676F000E686F000E696FE0EC19
:101A580017F061EC1BF0000E116E000E106E1DECFD
:101A680018F010C018F011C019F05CEC1AF018C08A
:101A780024F019C025F01AC026F0290E276E9C0EF6
:101A8800286E400E296EF1EC14F024C0D4F025C065
:101A9800D5F026C0D6F0D4C022F0D5C023F0D6C0E9
:101AA80024F0000E256E200E266E410E276E6BEC7C
:101AB80015F022C0D4F023C0D5F024C0D6F0D4C08D
:101AC8003AF0D5C03BF0D6C03CF05EEC13F03AC01B
:101AD800B8F03BC0B9F0E70E0001696F000E0001D5
:101AE8006A6F8B0E00016B6F080E00016C6FB8C037
:101AF8006DF0B9C06EF0000E0001706FDF0E6F6FF1
:101B08005CEC04F00001D751D8B4A5D7A20E106E32
:101B1800000E116E000E136E000E126E000E156E82
:101B28000F0E146EC3EC1AF0000E196E770E1A6EB3
:101B3800080E1B6E010E68EC19F096EC18F02AC01E
:101B4800B1F02BC0B2F02CC0B3F02DC0B4F0B1C0CE
:101B580094F0B2C095F0B3C096F0B4C097F0ECEC36
:101B680013F0D80E176E000E186EEDEC19F0900EEB
:101B7800176E080E186EEDEC19F0500E106E010E6F
:101B8800116ED80E126E000E136EACEC1AF0500ED9
:101B9800106E010E116EB40E126E080E136E96ECD6
:101BA80019F0000E196E9A0E1A6E080E1B6E020EB0
:101BB80068EC19F00001C05184EC16F060C0BAF06E
:101BC80061C0BBF062C0BCF0BAC066F0BBC067F0D1
:101BD800BCC068F096EC11F066C0BAF067C0BBF004
:101BE80068C0BCF0A20E0001696F000E00016A6FA8
:101BF800A60E00016B6F080E00016C6FBAC06DF085
:101C0800BBC06EF0BCC06FF05CEC04F0A20E176EA7
:101C1800000E186EEDEC19F0500E106E010E116EDC
:101C2800A20E126E000E136E96EC19F0500E106E86
:101C3800010E116EB40E126E080E136E96EC19F0AA
:101C4800A20E106E000E116E000E136E000E126EB4
:101C5800000E156E0F0E146EC3EC1AF0000E196EFE
:101C6800930E1A6E080E1B6E030E68EC19F0000135
:101C7800C25135EC16F060C0BDF061C0BEF062C064
:101C8800BFF0BDC066F0BEC067F0BFC068F096EC9C
:101C980011F066C0BDF067C0BEF068C0BFF0A20E0C
:101CA8000001696F000E00016A6FA60E00016B6FDC
:101CB800080E00016C6FBDC06DF0BEC06EF0BFC0F5
:101CC8006FF05CEC04F0A20E176E000E186EEDECCF
:101CD80019F0500E106E010E116EA20E126E000E4B
:101CE800136E96EC19F0500E106E010E116EB40EB4
:101CF800126E080E136E96EC19F0A20E106E000EFE
:101D0800116E000E136E000E126E000E156E0F0E81
:101D1800146EC3EC1AF0000E196EA00E1A6E080E9F
:101D28001B6E040E68EC19F00001C7511BEC17F08C
:101D380060C0B5F061C0B6F062C0B7F0A20E000195
:101D4800696F000E00016A6FAC0E00016B6F080E20
:101D580000016C6FB5C06DF0B6C06EF0B7C06FF023
:101D68005CEC04F0A20E176E000E186EEDEC19F084
:101D7800500E106E010E116EE70E126E000E136EED
:101D880096EC19F0500E106E010E116EB10E126E17
:101D9800080E136E96EC19F0500E116E010E126EAD
:101DA80011EC1BF058D63C6E6D0E3C649FD0000EB3
:101DB800216E030E206E000E196E0A0E186E000EAC
:101DC800136E640E126E3CC010F0116ACFEC18F05E
:101DD80010C016F011C017F05DEC17F0090E1624AC
:101DE8001E6E000E17201F6EECEC1AF0500E1E240B
:101DF800F66E080E1F20F76E0900F5CF27F00900D0
:101E0800F5CF28F00A00F5CF29F0000E196E640E00
:101E1800186E3CC016F0176A5DEC17F0120E162407
:101E28001E6E000E17201F6E000E216E030E206E10
:101E3800ECEC1AF0500E1E24F66E080E1F20F76EFA
:101E48000900F5CF24F00900F5CF25F00A00F5CFF9
:101E580026F0F1EC14F024C039F025C03AF026C081
:101E68003BF0000E216E030E206E000E136E0A0E5C
:101E7800126E3CC010F0116ACFEC18F010C01EF0C2
:101E880011C01FF0ECEC1AF0500E1E24F66E080E6E
:101E98001F20F76E0900F5CF27F00900F5CF28F0CD
:101EA8000A00F5CF29F039C024F03AC025F03BC02C
:101EB80026F0F1EC14F024C036F025C037F026C027
:101EC80038F036C024F037C025F038C026F0000EB0
:101ED800276E000E286E3F0E296EF1EC14F024C018
:101EE80033F025C034F026C035F012000A0E3C64E9
:101EF8005DD0000E216E030E206E000E136E0A0ECA
:101F0800126E3CC010F0116ACFEC18F010C01EF031
:101F180011C01FF0ECEC1AF0500E1E24F66E080EDD
:101F28001F20F76E0900F5CF27F00900F5CF28F03C
:101F38000A00F5CF29F0000E196E0A0E186E3CC083
:101F480016F0176A5DEC17F0090E16241E6E000EC7
:101F580017201F6E000E216E030E206EECEC1AF097
:101F6800500E1E24F66E080E1F20F76E0900F5CFDE
:101F780024F00900F5CF25F00A00F5CF26F0F1ECA2
:101F880014F024C039F025C03AF026C03BF039C01F
:101F980024F03AC025F03BC026F0000E276E000E54
:101FA800286E3F0E296EF1EC14F099D73C50030DC2
:101FB800500EF324F66E080EF420F76E0900F5CFE4
:101FC80024F00900F5CF25F00A00F5CF26F0000E21
:101FD800276E000E286E3F0E296EF1EC14F024C017
:101FE80033F025C034F026C035F012003FC043F06E
:101FF800446A456A3E34433601E344804350000155
:10200800626F42C043F0446A456A4134433601E393
:10201800448043500001616F000162510001D8B44F
:102028000FD0000161510001625DD8B010D00001ED
:102038006251000800016125436E180E436407D001
:1020480040C03DF041C03EF042C03FF012000001E8
:1020580061510001D8B40FD0000162510001615DE7
:10206800D8B010D000016151000800016225436E0C
:10207800180E436407D03DC03DF03EC03EF03FC05F
:102088003FF01200060E0001606F3FAE02D0000163
:10209800608F42AE02D00001608D3E8EFF0E3D166D
:1020A800FF0E3E16000E3F16418EFF0E4016FF0E25
:1020B8004116000E4216000161510001625DD8B060
:1020C80022D0D890403641364236000161070001DF
:1020D800625100016119D8B40FD00001600760C0D7
:1020E80043F0070E4316D8B407D0EBD7D8903F3249
:1020F8003E323D320001622B00016151000162193C
:10210800D8B428D0F3D7000162510001615DD8B07E
:1021180021D0D8903D363E363F3600016207000197
:10212800625100016119D8B40FD00001600760C086
:1021380043F0070E4316D8B407D0EBD7D8904232F5
:10214800413240320001612B0001615100016219E6
:10215800D8A4F4D7000160AF0CD0FF0E3D1AFF0ED3
:102168003E1AFF0E3F1A010E3D26000E3E22000EBB
:102178003F22000160AD0CD0FF0E401AFF0E411A3D
:10218800FF0E421A010E4026000E4122000E422286
:10219800000E0001606F3D5040263E5041223F50E6
:1021A800422242AE0FD0FF0E401AFF0E411AFF0E18
:1021B800421A010E4026000E4122000E4222010E54
:1021C8000001606F40C010F041C011F042C012F031
:1021D80062C013F060C014F0DEEC15F010C03DF0E2
:1021E80011C03EF012C03FF012000600FACF01F015
:1021F800FBCF02F0E9CF03F0EACF04F0E1CF05F01E
:10220800E2CF06F0D9CF07F0DACF08F0F3CF09F024
:10221800F4CF0AF0F6CF0BF0F7CF0CF0F8CF0DF0B3
:10222800F5CF0EF09EAA60D0F29EAECF0FF0ABA213
:1022380003D0AB9800F0AB88240E0F18D8A40DD0AB
:10224800000E4A6E000E496E000E0001D76F000E98
:102258004B6E000E4D6E000E26D00001D705D8A497
:1022680027D02C0E0F18D8A40BD04D50010DC00E3E
:10227800F324D96E000EF420DA6E49C0DFFF4D2A30
:10228800000E4924D96E010E4A20DA6E0FC0DFFF16
:10229800494A4A2A0A0E0F18D8A407D00D0E4B181F
:1022A800D8A422D0010E4C6E1FD00FC04BF01CD00A
:1022B800470E4618D8A412D0470E4718D8A40ED0F7
:1022C800410E4818D8A40AD0010E0001D76F000E9D
:1022D800466E000E476E000E486E06D047C046F0A8
:1022E80048C047F00FC048F00EC0F5FF0DC0F8FF1A
:1022F8000CC0F7FF0BC0F6FF0AC0F4FF09C0F3FFDC
:1023080008C0DAFF07C0D9FF06C0E2FF05C0E1FF39
:1023180004C0EAFF03C0E9FF02C0FBFF01C0FAFFE7
:1023280050921100000E256EC80E266E420E276EC2
:1023380066C022F067C023F068C024F06BEC15F08B
:1023480022C03AF023C03BF024C03CF05EEC13F00E
:102358003AC06FF03BC070F0000E276EC80E286EB2
:10236800420E296E6FC018F070C019F05CEC1AF0BC
:1023780018C024F019C025F01AC026F0F1EC14F0AA
:1023880024C033F025C034F026C035F0FFEC1AF035
:1023980033C03DF034C03EF035C03FF066C040F079
:1023A80067C041F068C042F0FAEC0FF03DC069F038
:1023B8003EC06AF03FC06BF069C022F06AC023F0EB
:1023C8006BC024F0000E256E700E266E420E276E2E
:1023D8006BEC15F022C06CF023C06DF024C06EF0D9
:1023E8006FC018F070C019F05CEC1AF018C03DF01E
:1023F80019C03EF01AC03FF06CC040F06DC041F00B
:102408006EC042F0FAEC0FF03DC071F03EC072F0C1
:102418003FC073F0530E4F18D8B404D0570E4E185F
:10242800D8A414D071C024F072C025F073C026F06F
:10243800000E276E800E286EBF0E296EF1EC14F088
:1024480024C071F025C072F026C073F071C066F028
:1024580072C067F073C068F0120012C016F0176AF5
:10246800186A1134163601E3178016501E6E1E5076
:10247800D8A409D0000E106E000E116E000E126E58
:10248800000E136E120015C016F0176A186A14347D
:10249800163601E3178016501D6E1D50D8A409D0BA
:1024A800000E106E000E116E000E126E000E136EEE
:1024B8001200118EFF0E1016FF0E1116000E1216C6
:1024C800148EFF0E1316FF0E1416000E1516000EAE
:1024D800196E000E1A6E000E1B6E000E1C6E7F0E1B
:1024E8001E5E1D50980F1E5E180E1D6ED890193670
:1024F8001A361B361C361350105C145011581550E0
:102508001258D8A007D01350105E1450115A155005
:10251800125A1980D8901036113612361D2EE6D769
:102528001EAE16D01E50800A970FD8B009D0000EE4
:10253800106E000E116E000E126E000E136E120059
:10254800D8901C321B321A3219321E3EF9D715D0D8
:10255800170E1E640FD0000E106E000E116E000EC6
:10256800126E000E136E1200D89019361A361B36EA
:102578001C361E061E50D8A4F7D719C010F01AC072
:1025880011F01BC012F01CC013F0120012341334E7
:102598001B6E1B50D8A409D0000E106E000E116ED1
:1025A800000E126E000E136E1200153416341A6ED9
:1025B8001A50D8A409D0000E106E000E116E000E2D
:1025C800126E000E136E1200128EFF0E1016FF0E02
:1025D8001116FF0E1216000E1316158EFF0E131687
:1025E800FF0E1416FF0E1516000E1616000E166EA8
:1025F800000E176E000E186E000E196E7F0E1B5E11
:102608001A50A00F1B5E200E1A6ED8901636173679
:10261800183619361350105C1450115815501258AA
:1026280016501358D8A009D01350105E1450115AE0
:102638001550125A1650135A1680D8901036113663
:10264800123613361A2EE1D71BAE16D01B50800A4D
:102658009F0FD8B009D0000E106E000E116E000E3C
:10266800126E000E136E1200D890193218321732FB
:1026780016321B3EF9D715D01F0E1B640FD0000E63
:10268800106E000E116E000E126E000E136E120008
:10269800D89016361736183619361B061B50D8A48C
:1026A800F7D716C010F017C011F018C012F019C0F3
:1026B80013F012003CC03EF03F6A406A3B343E369D
:1026C80001E33F803E500001656F00016551D8A4C9
:1026D80009D0000E3A6E000E3B6E000E3C6E000EE6
:1026E8003D6E1200170E3E6E3AC03FF03BC040F000
:1026F8003CC041F03E28426E04D0D890413240326E
:102708003F32422EFAD73F500001606F3B8EFF0EDA
:102718003A16FF0E3B16000E3C163A500001616F48
:102728003B500001626F3C500001636F0001646B15
:102738008E0E0001655F000165AF19D0000165517B
:10274800800A8F0FD8B009D0000E3A6E000E3B6E8B
:10275800000E3C6E000E3D6E12000001D8906433EE
:102768006333623361330001653FF7D71AD0170E20
:102778000001656511D0000E3A6E000E3B6E000E2A
:102788003C6E000E3D6E12000001D8906137623732
:102798006337643700016507000165510001D8A45B
:1027A800F3D7000160510001D8B409D00001641FBB
:1027B800631F621F616D000E62236323642361C07F
:1027C8003AF062C03BF063C03CF064C03DF01200D8
:1027D80094C019F095C01AF096C01BF097C01CF071
:1027E800100E1D6E270E1E6E000E1F6E000E206E40
:1027F8009FEC17F019C09CF01AC09DF0100E146ED3
:10280800270E156E000E166E000E176E94C010F08F
:1028180095C011F096C012F097C013F007EC19F0AC
:1028280010C019F011C01AF012C01BF013C01CF030
:10283800640E1D6E000E1E6E000E1F6E000E206EC2
:102848009FEC17F019C09EF01AC09FF0100E146E7E
:10285800270E156E000E166E000E176E94C010F03F
:1028680095C011F096C012F097C013F007EC19F05C
:1028780010C098F011C099F012C09AF013C09BF0E4
:1028880098C010F099C011F09AC012F09BC013F0D4
:10289800640E146E000E156E000E166E000E176E86
:1028A80007EC19F010C0A0F011C0A1F0D80E00017B
:1028B800696F000E00016A6F820E00016B6F080ECF
:1028C80000016C6F9CC06DF09DC06EF09EC06FF0F3
:1028D8009FC070F0A0C071F0A1C072F05CEC04F071
:1028E80012001CC0D9FF1DC0DAFFDF50296E1C4A38
:1028F8001D2A200E2918D8B4F4D7090E2918D8B4DF
:10290800F0D7000E256E000E266E000E276E000E04
:10291800286E000E246E2D0E2918D8A405D0242A5E
:102928002AD01C4A1D2A2ED02B0E2918D8A42AD00A
:1029380022D025C010F026C011F027C012F028C000
:1029480013F00A0E146E000E156E000E166E000EB1
:10295800176EC2EC19F029C020F0D00E20262050A6
:102968001024256E000E1120266E000E1220276EF0
:10297800000E1320286E1CC0D9FF1DC0DAFFDF50DF
:10298800296ECFD7295034EC1BF0D8B0D2D72450B9
:10299800D8B41AD025C020F026C021F027C022F0D4
:1029A80028C023F0201E211E221E231E202A000ECE
:1029B80021222222232220C01CF021C01DF022C087
:1029C8001EF023C01FF0120025C01CF026C01DF009
:1029D80027C01EF028C01FF0120026C02AF02B6A5C
:1029E8002C6A25342A3601E32B802A502D6E2D506F
:1029F800D8A407D0000E246E000E256E000E266E99
:102A0800120029C02AF02B6A2C6A28342A3601E3DE
:102A18002B802A50326E3250D8A407D0000E246E74
:102A2800000E256E000E266E120032507B0F2D26EA
:102A380026C032F02950321A800E3216258E288E82
:102A4800FF0E2716FF0E2816000E2916000E2E6EF2
:102A5800000E2F6E000E306E070E316E24A006D0C9
:102A680027502E2628502F2229503022D89026323F
:102A780025322432D890273628362936312EEED7FB
:102A8800090E316E24A006D027502E2628502F225A
:102A980029503022D890263225322432D89030322C
:102AA8002F322E32312EEED72EC010F02FC011F05B
:102AB80030C012F02DC013F032C014F0DEEC15F067
:102AC80010C024F011C025F012C026F0120024C056
:102AD80028F0296A2A6A2334283601E329802850F5
:102AE8002F6E2F50D8A407D0000E226E000E236E32
:102AF800000E246E120027C028F0296A2A6A26349C
:102B0800283601E329802850306E3050D8A407D0E9
:102B1800000E226E000E236E000E246E1200000EB0
:102B28002C6E000E2D6E000E2E6E3050890F2F5E0B
:102B380024C030F02750301A800E3016238EFF0E36
:102B48002216FF0E2316000E2416268EFF0E2516BB
:102B5800FF0E2616000E2716180E2B6ED8902C3650
:102B68002D362E362550225C2650235827502458BF
:102B7800D8A007D02550225E2650235A2750245A21
:102B88002C80D8902236233624362B2EE7D72CC01B
:102B980010F02DC011F02EC012F02FC013F030C06D
:102BA80014F0DEEC15F010C022F011C023F012C0B2
:102BB80024F012001350D8B405D010501110121080
:102BC800D8A40CD0000E106E000E116E000E126EFE
:102BD8001200132AD890123211321032000E10143B
:102BE800156E000E1114166EFE0E1214176E155087
:102BF80016101710D8B40CD0ECD7132A010E1026D3
:102C0800000E1122000E1222D89012321132103208
:102C1800000E1014156E000E1114166EFF0E12140D
:102C2800176E155016101710D8B406D0E6D713062D
:102C3800D89010361136123611BE03D0020E13602A
:102C4800F6D713A0119ED8901332135012121450B5
:102C5800D8A4128E10C010F011C011F012C012F0DA
:102C680012000001756F000175290001766F000ED2
:102C78000001776F18D000017651010D000EF32482
:102C8800D96E010EF420DA6E00017751010D630E42
:102C9800F324E16E000EF420E26EDFCFE7FF0001BF
:102CA800772B0001762B00017651010D000EF324DD
:102CB800D96E010EF420DA6E2C0EDE18D8A4DBD7FC
:102CC8000001772B00017751010D000EF324D96E16
:102CD800010EF420DA6EDF504E6E630E426E000E67
:102CE800436E23EC1BF042C072F043C073F044C043
:102CF80074F072C060F073C061F074C062F01200CA
:102D08000001756F000175290001776F000E000141
:102D1800766F18D000017751010D000EF324D96E9B
:102D2800010EF420DA6E00017651010D630EF324D2
:102D3800E16E000EF420E26EDFCFE7FF0001762B94
:102D48000001772B00017751010D000EF324D96E95
:102D5800010EF420DA6E2C0EDE18D8A4DBD70001A1
:102D6800772B00017751010D000EF324D96E010E67
:102D7800F420DA6EDF504F6E630E426E000E436E23
:102D880023EC1BF042C072F043C073F044C074F0EF
:102D980072C060F073C061F074C062F0120012AECD
:102DA80016D010C016F011C017F012C018F0161E79
:102DB800171E181E162A000E17221822000E162497
:102DC800106E000E1720116E800E1820126E15AEB0
:102DD80016D013C016F014C017F015C018F0161E40
:102DE800171E181E162A000E17221822000E162467
:102DF800136E000E1720146E800E1820156E000E2C
:102E0800101A000E111A800E121A000E131A000E54
:102E1800141A800E151A1350105C145011581550BE
:102E28001258D8B002D0D8901200D88012000001F1
:102E3800726F000172290001746F000E0001736F38
:102E480018D000017451010D000EF324D96E010E43
:102E5800F420DA6E00017351010D630EF324E16E64
:102E6800000EF420E26EDFCFE7FF0001732B0001B4
:102E7800742B00017451010D000EF324D96E010E5C
:102E8800F420DA6E2C0EDE18D8A4DBD7630E426E5F
:102E9800000E436E23EC1BF042C06FF043C070F08D
:102EA80044C071F06FC060F070C061F071C062F032
:102EB8001200000E1B6E19AE06D0186C191ED8B081
:102EC800192A010E1B6E17AE06D0166C171ED8B045
:102ED800172A010E1B1A000E1D6E000E1C6E1850CC
:102EE8001910D8B41CD0010E1A6E04D0D890183618
:102EF80019361A2A19AEFAD7D8901C361D3618502A
:102F0800165C19501758D8A005D01850165E1950DD
:102F1800175A1C80D890193218321A2EEDD71B5028
:102F2800D8B404D01C6C1D1ED8B01D2A1CC016F0C5
:102F38001DC017F01200000E216E000E226E000E4A
:102F4800236E000E246E1D501E101F102010D8B4C2
:102F58002AD0010E256E06D0D8901D361E361F3693
:102F68002036252A20AEF8D7D890213622362336A7
:102F780024361D50195C1E501A581F501B582050DB
:102F88001C58D8A009D01D50195E1E501A5A1F503F
:102F98001B5A20501C5A2180D89020321F321E32D2
:102FA8001D32252EE1D721C019F022C01AF023C006
:102FB8001BF024C01CF01200949C948E66C018F07C
:102FC80067C019F068C01AF069C01BF05AEC18F015
:102FD80018C025F019C026F01AC027F0240E226E5A
:102FE800F40E236E470E246E6BEC15F022C03DF0F4
:102FF80023C03EF024C03FF0000E406E800E416EAC
:10300800BF0E426EFAEC0FF03DC06AF03EC06BF0A6
:103018003FC06CF06AC03AF06BC03BF06CC03CF04B
:103028005EEC13F03A50AF6E200EAC6E900EAB6EA5
:10303800120010C012F0D8901236D89012363C0EFA
:103048001216C250C30B1210C26EC2A203D0126A6B
:10305800122A01D0126A010E136E122A02D0D890D9
:103068001336122EFCD7C2A003D0146A142A01D03A
:10307800146A010E156E142A02D0D8901536142E33
:10308800FCD715501310C212C2B2FED7C350C4CF1A
:1030980012F0136A12C013F0126A1210166E13504F
:1030A800176E16C010F017C011F01200000E216E36
:1030B8008E0E206E1BAE11D01B1E1A1E191E186C08
:1030C800000E19221A221B22010E216E06D0D8905A
:1030D8001B321A3219321832202A000E18141C6EAC
:1030E800000E19141D6E000E1A141E6EFF0E1B140E
:1030F8001F6E1C501D101E101F10D8A4E8D718C032
:1031080010F019C011F01AC012F020C013F021C03D
:1031180014F0DEEC15F010C018F011C019F012C050
:103128001AF01200000E426E13D04250010D000E2C
:10313800F324D96E010EF420DA6E4250010D2F0EE1
:10314800F324E16E000EF420E26EDFCFE7FF422A9F
:103158004250010D000EF324D96E010EF420DA6EF0
:103168002C0EDE18D8A4E1D72F0E1C6E000E1D6E93
:1031780075EC14F01CC03EF01DC03FF01EC040F0BE
:103188001FC041F03EC02AF03FC02BF040C02CF0D9
:1031980041C02DF01200000E156E11AE06D0106C55
:1031A800111ED8B0112A010E156E13AE04D0126C80
:1031B800131ED8B0132A12501310D8B418D0010E09
:1031C800146E04D0D89012361336142A13AEFAD7D8
:1031D8001250105C13501158D8A004D01250105E31
:1031E8001350115AD89013321232142EF1D71550A9
:1031F800D8B404D0106C111ED8B0112A10C010F029
:1032080011C011F012001450151016101710D8B470
:1032180024D0010E186E06D0D890143615361636FE
:103228001736182A17AEF8D71450105C15501158D5
:103238001650125817501358D8A008D01450105EC2
:103248001550115A1650125A1750135AD89017324F
:10325800163215321432182EE7D710C010F011C0EC
:1032680011F012C012F013C013F012008E0E206E6F
:1032780006D0D8901B321A3219321832202A000E82
:1032880018141C6E000E19141D6E000E1A141E6EF2
:10329800FF0E1B141F6E1C501D101E101F10D8A4EB
:1032A800E8D718C010F019C011F01AC012F020C0E9
:1032B80013F0000E146EDEEC15F010C018F011C0FB
:1032C80019F012C01AF012001C6E1C04D8A406D003
:1032D80019500F0B800952EC1BF01DD0020E1C1860
:1032E800D8A406D019500F0BC00952EC1BF013D00C
:1032F800030E1C18D8A406D019500F0B940952ECD1
:103308001BF009D0040E1C18D8A405D019500F0BB7
:10331800D40952EC1BF01AC017F01BC018F0EDECE2
:1033280019F0120010C014F011C015F002D0144AA0
:10333800152A14C0D9FF15C0DAFFDF50D8B405D05C
:10334800F6D7144A152A124A132A12C0F6FF13C0D8
:10335800F7FFF86A14C0D9FF15C0DAFF070EF76443
:1033680003D00800F55005D0F6CFE1FFF7CFE2FF14
:10337800E750DF6EDF50D8B41200E3D7000E186EA6
:10338800000E196E000E1A6E000E1B6E10A008D0EB
:10339800145018261550192216501A2217501B229D
:1033A800D8901436153616361736D890133212328E
:1033B800113210321050111012101310D8A4E6D781
:1033C80018C010F019C011F01AC012F01BC013F089
:1033D800120014D017C0F6FF18C0F7FFF86A070EDE
:1033E800F76403D00800F55005D0F6CFE1FFF7CF1A
:1033F800E2FFE75043EC1BF0174A182A17C0F6FF04
:1034080018C0F7FFF86A070EF76403D00800F550F4
:1034180005D0F6CFE1FFF7CFE2FFE7500009D8B4B7
:103428001200D8D700016651000167110001681128
:10343800D8B409D0000E0001661B000E0001671BFE
:10344800800E0001681B63C03DF064C03EF065C09B
:103458003FF066C040F067C041F068C042F0FAEC47
:103468000FF03DC063F03EC064F03FC065F012004D
:10347800000E946E000E936E000E116E140E106EF8
:1034880078EC1AF0380E52EC1BF00C0E52EC1BF0D4
:10349800060E52EC1BF0010E52EC1BF0000E116EE2
:1034A800030E106E78EC1AF0800E52EC1BF012002E
:1034B800000E1B6E19AE06D0186C191ED8B0192A4A
:1034C800010E1B6E18C010F019C011F0126A8E0E92
:1034D800136E1BC014F0DEEC15F010C018F011C00C
:1034E80019F012C01AF01200000E136E000E126EC0
:1034F8000FD0000E156E000E146E155007E1A50EC4
:10350800145CD8B003D0144A152AF7D7124A132AE4
:103518001050125C11501358D8B01200EAD701EEBF
:1035280000F0820EEE6AE806FDE100EEC0F0310E12
:10353800EE6AE806FDE100EE46F00A0EEE6AE806DD
:10354800FDE150905092000EF86E00011BEF0DF057
:1035580010C014F011C015F004D0144A152A124AEC
:10356800132A12C0D9FF13C0DAFF14C0E1FF15C037
:10357800E2FFDFCFE7FFE750D8B41200EED710C064
:1035880016F011C017F008D016C0D9FF17C0DAFF1F
:1035980012C0DFFF164A172A1406D8A015061428E9
:1035A800F3E11528D8B41200EFD7126E010E116E90
:1035B800200E1218D8B408D00E0E126003D0090ECF
:1035C800126002D0000E116E11C010F010301200FF
:1035D8001E502002F3CF22F0F4CF23F01E50210218
:1035E800F35023261F502002F350232622C01EF03A
:1035F80023C01FF01200335034103510D8B406D051
:10360800000E331A000E341A800E351A33C033F008
:1036180034C034F035C035F0120009D011C0D9FFDC
:1036280012C0DAFFDF506BEC1BF0114A122A11C0EE
:10363800D9FF12C0DAFFDF50D8B41200EFD742C06A
:1036480036F043C037F0000E386E000E396E40EC8D
:103658000BF036C042F037C043F038C044F01200D7
:10366800126E000E116E3A0E126005D02F0E126403
:1036780002D0010E116E11C010F010301200166E3B
:1036880016C08AFF8B808B928B8400F08B94000E7F
:10369800116E030E106E78EC1AF01200166E16C03A
:1036A8008AFF8B908B928B8400F08B94000E116EA6
:1036B800030E106E78EC1AF0120092680E0EC16EAE
:1036C800920EC06E000EC46E000EC36E1200106E15
:0A36D8009EA8FED710C0ADFF12003F
:020000040020DA
:08000000FFFFFFFFFFFFFFFF00
:020000040030CA
:0E00000000051F1FFF8385FF0FC00FE00F409C
:00000001FF
