:04000000A8EF04F071
:10080000005069204420205420204320206F686D30
:100810000000720ED36EBFEC04F0000E326E010EBB
:10082000336E080E346E010E8BEC04F0010E306E48
:10083000000E316E000E4DEC04F0090E306E000E0D
:10084000316E010E4DEC04F0110E306E000E316E63
:10085000020E4DEC04F0190E306E000E316E030ED8
:100860004DEC04F0210E306E000E316E040E4DEC96
:1008700004F0000E376E040E376401D00BD03750F1
:10088000030DF350C00900EC05F037500EEC05F0F5
:10089000372AF1D7FFD700EF00F0326E080E326032
:1008A0001AD03250080DF350400F00EC05F0000E46
:1008B000336E070E336401D00ED03350010DF35068
:1008C0003024D96EF4503120DA6EDF500EEC05F092
:1008D000332AEFD700D01200000E2C6E000E2B6EC4
:1008E00013D0000E2E6E000E2D6E2E500AE1510E0A
:1008F0002D5CD8B006D001D004D02D4A2E2AF5D7D1
:1009000000D02B4A2C2A00D02B50295C2C502A587E
:10091000D8B0E7D71200356E000E366E020E356085
:1009200008D032500F0B8009366E365000EC05F0BF
:1009300008D032500F0BC009366E365000EC05F06F
:1009400000D033C030F034C031F0D6EC04F01200E7
:10095000D80EF66E090EF76E000EF86E00EE01F07E
:1009600010EE28F00900F5CFEEFFE550E150FAE176
:10097000000EF86E080EF76E000109EF04F0000E8D
:100980002A6E0F0E296E6CEC04F0000E936E000EB2
:10099000956E380E00EC05F00C0E00EC05F0060E1E
:1009A00000EC05F0010E00EC05F012000BD030C099
:1009B000F6FF31C0F7FF0800F5500EEC05F0304AA5
:1009C000312A00D030C0F6FF31C0F7FF0800F550E3
:1009D0000009D8A4ECD71200001F0A0A0A0A09006D
:1009E00011191D1F1D1911001214181018151317B5
:1009F0000A0A0A1B0A0A0A00000E1111110A1B003A
:100A00002F6E2FC08AFF8C908C8200F08C92000E8B
:100A10002A6E020E296E6CEC04F012002F6E2FC0AD
:100A20008AFF8C808C8200F08C92000E2A6E010E60
:080A3000296E6CEC04F01200C9
:020000040020DA
:08000000FFFFFFFFFFFFFFFF00
:020000040030CA
:0E00000000091F1EFF0381FF0FC00FE00F401D
:00000001FF
