:040000009BEF3EF044
:107CDE00010E7FEC3EF0120000000E1F1F0E000082
:107CEE000E1F1F0E00000000000000000E1F1F0ED2
:107CFE001F6E1FC08AFF8C908C8200F08C92000E3B
:107D0E001A6E020E196EC5EC3EF012001F6E1FC0E9
:107D1E008AFF8C808C8200F08C92000E1A6E010EFF
:107D2E00196EC5EC3EF01200E60EF66E7C0EF76E86
:107D3E00000EF86E00EE01F010EE18F00900F5CF0F
:107D4E00EEFFE550E150FAE1000103EF3FF0000EC7
:107D5E001A6E0F0E196EC5EC3EF0000E936E000EED
:107D6E00956E380E7FEC3EF00C0E7FEC3EF0060E5C
:107D7E007FEC3EF0010E7FEC3EF01200000E1C6E0A
:107D8E00000E1B6E13D0000E1E6E000E1D6E1E50CA
:107D9E000AE1510E1D5CD8B006D001D004D01D4AA8
:107DAE001E2AF5D700D01B4A1C2A00D01B50195C86
:107DBE001C501A58D8B0E7D71200226E080E226057
:107DCE001AD02250080DF350400F7FEC3EF0000EFB
:107DDE00236E070E236401D00ED02350010DF350F5
:107DEE002024D96EF4502120DA6EDF508DEC3EF057
:107DFE00232AEFD700D01200720ED36EAEEC3EF0F7
:107E0E00010E206E000E216E000EE4EC3EF0090E07
:107E1E00206E000E216E010EE4EC3EF0110E206E6F
:107E2E00000E216E020EE4EC3EF000D06FEC3EF040
:107E3E00800E7FEC3EF0000E8DEC3EF0000E1A6EC2
:107E4E00FA0E196EC5EC3EF06FEC3EF0C10E7FECF3
:107E5E003EF0010E8DEC3EF0000E1A6EFA0E196E0B
:107E6E00C5EC3EF06FEC3EF0C20E7FEC3EF0020E23
:107E7E008DEC3EF0010E1A6E900E196EC5EC3EF0B2
:107E8E006FEC3EF0C30E7FEC3EF0000E8DEC3EF03C
:107E9E00010E1A6E900E196EC5EC3EF06FEC3EF0B0
:107EAE00C40E7FEC3EF0010E8DEC3EF0010E1A6E0C
:107EBE00900E196EC5EC3EF06FEC3EF0850E7FEC29
:107ECE003EF0020E8DEC3EF0010E1A6E900E196E03
:107EDE00C5EC3EF06FEC3EF0860E7FEC3EF0000EF1
:107EEE008DEC3EF0010E1A6E900E196EC5EC3EF042
:107EFE006FEC3EF0870E7FEC3EF0010E8DEC3EF007
:107F0E00010E1A6EF40E196EC5EC3EF06FEC3EF0DB
:107F1E00880E7FEC3EF0000E8DEC3EF0010E1A6ED8
:107F2E00F40E196EC5EC3EF06FEC3EF0890E7FEC50
:107F3E003EF0020E8DEC3EF0010E1A6EF40E196E2E
:107F4E00C5EC3EF06FEC3EF0CA0E7FEC3EF0010E3B
:107F5E008DEC3EF0010E1A6EF40E196EC5EC3EF06D
:107F6E006FEC3EF0CB0E7FEC3EF0000E8DEC3EF053
:107F7E00010E1A6EF40E196EC5EC3EF06FEC3EF06B
:107F8E00CC0E7FEC3EF0020E8DEC3EF0020E1A6E21
:107F9E00580E196EC5EC3EF06FEC3EF0CD0E7FEC38
:107FAE003EF0010E8DEC3EF0020E1A6E580E196E5A
:107FBE00C5EC3EF06FEC3EF08E0E7FEC3EF0020E06
:107FCE008DEC3EF0020E1A6E580E196EC5EC3EF098
:107FDE006FEC3EF08F0E7FEC3EF0000E8DEC3EF01F
:107FEE00020E1A6E580E196EC5EC3EF01FD700EF3A
:027FFE0000F091
:020000040020DA
:08000000FFFFFFFFFFFFFFFF00
:020000040030CA
:0E00000000091F1EFF0381FF0FC00FE00F401D
:00000001FF
