:04000000AFEF06F068
:100800000001000A006400E80310274E6F204572C3
:10081000726F720025642020002E256420002E2592
:1008200064000000720ED36E60EC06F00F0EC16E15
:1008300000D077EC06F0A3EC06F025EC06F02A6E6B
:1008400025EC06F0296E25EC06F02C6E25EC06F062
:100850002B6E25EC06F02D6E1F0E0D6E000E0E6E2B
:100860001F0E0F6E080E106E2AC011F0126AD3EC24
:1008700004F0000E0A6E1F0E0B6E000E0C6E000EC2
:1008800043EC06F01F0E0D6E000E0E6E190E0F6E6D
:10089000080E106E29C011F0126AD3EC04F01F0E7E
:1008A000086E000E096EB6EC05F0250E87EC06F01A
:1008B0001F0E0D6E000E0E6E1F0E0F6E080E106EC8
:1008C0002CC011F0126AD3EC04F0000E0A6E1F0E59
:1008D0000B6E000E0C6E010E43EC06F01F0E0D6E3B
:1008E000000E0E6E1E0E0F6E080E106E2BC011F055
:1008F000126AD3EC04F01F0E086E000E096EB6ECFF
:1009000005F0DF0E87EC06F0430E87EC06F01F0EB5
:100910000D6E000E0E6E140E0F6E080E106E2DC0B2
:1009200011F0126AD3EC04F0080E0A6E1F0E0B6E63
:10093000000E0C6E010E43EC06F02D501B6E1C6A6F
:1009400029502AC01DF01E6A1D26000E1E222C50A2
:100950001D26000E1E222B501D26000E1E221B508F
:100960001D1804E11C501E18D8B40AD0080E0A6ED7
:100970000E0E0B6E080E0C6E000E43EC06F00AD045
:10098000080E0A6E0B0E0B6E080E0C6E000E43EC7A
:1009900006F000D0010E026EF40E016E06EC06F0B9
:1009A00048D700EF00F0110E146E000E156E9AD0AD
:1009B000250E1A18D8B409D00DC0D9FF0EC0DAFF21
:1009C0001AC0DFFF0D4A0E2A8DD0000E166E04D01D
:1009D00097D015D087D013D00FC0F6FF10C0F7FF07
:1009E0000F4A102A0800F5CF1AF01A50000AD8B49E
:1009F00087D0640AD8B403D00D0AD8A473D014C029
:100A0000D9FF15C0DAFFDECF18F0DDCF19F0020EE6
:100A10001426000E152219AE07D0030E1612186CFC
:100A2000191ED8B0192A00D0010E1A6E050E1A1818
:100A3000D8B416D001D014D01A50020D010EF324F0
:100A4000F66E080EF420F76E0900F550185C0900E8
:100A5000F5501958D8A004D001D002D01A2AE6D7F0
:100A600016C013F0030E1316D8B409D00DC0D9FF69
:100A70000EC0DAFF2D0EDF6E0D4A0E2A00D01AC00E
:100A800017F02AD01750020D010EF324F66E080E4F
:100A9000F420F76E0900F5CF03F00A00F5CF04F05B
:100AA00018C001F019C002F088EC05F001C008F090
:100AB00002C009F0000E0B6E0A0E0A6EE0EC05F0A3
:100AC0000850300F1A6E0DC0D9FF0EC0DAFF1AC0E1
:100AD000DFFF0D4A0E2A00D017061728D8B402D01F
:100AE000D1D700D00FC0F6FF10C0F7FF0F4A102A71
:100AF0000800F5CF1AF01A50D8B402D059D700D058
:100B00000DC0D9FF0EC0DAFF000EDF6E00D012005C
:100B1000000E066E000E056E03500410D8B421D0EE
:100B2000010E076E05D0D89003360436072A00D090
:100B300004BE02D0F8D700D0D89005360636035050
:100B4000015C04500258D8A006D00350015E045046
:100B5000025A058000D0D89004320332072EECD719
:100B600000D005C001F006C002F0120015D008C088
:100B7000F6FF09C0F7FFF86A070EF76403D0080014
:100B8000F55005D0F6CFE9FFF7CFEAFFEF5087EC3D
:100B900006F0084A092A00D008C0F6FF09C0F7FF8E
:100BA000F86A070EF76403D00800F55005D0F6CFB9
:100BB000E9FFF7CFEAFFEF500009D8A4D8D7120019
:100BC0000A500B10D8B41DD0010E0C6E05D0D89071
:100BD0000A360B360C2A00D00BBE02D0F8D700D054
:100BE0000A50085C0B500958D8A005D00A50085E7E
:100BF0000B50095A00D0D8900B320A320C2EF0D785
:100C000000D008C008F009C009F01200000E046E00
:100C1000000E036E13D0000E066E000E056E065019
:100C20000AE1510E055CD8B006D001D004D0054AC7
:100C3000062AF5D700D0034A042A00D00350015CED
:100C400004500258D8B0E7D71200000E026E000E12
:100C5000016E070E016402D013D000D080A0FED731
:100C6000140EE82EFED780A003D0D880023604D020
:100C700002500224026E00D080B0FED7012AE9D7CC
:100C8000025000D012000D6E000E0E6E0D50D8A452
:100C900008D00A500F0B80090E6E0E5095EC06F02E
:100CA00008D00A500F0BC0090E6E0E5095EC06F0DE
:100CB00000D00BC008F00CC009F0B6EC05F0120033
:100CC000000E956E000E936E000E026E140E016EF5
:100CD00006EC06F0380E95EC06F0010E95EC06F0E9
:100CE0000C0E95EC06F0060E95EC06F012009290B4
:100CF00089902F0E016EC00EE82EFED7012EFCD774
:100D000089800D0EE82EFED700F092801200076E4B
:100D100007C08AFF8C808C8200F08C92000E026EDD
:100D2000010E016E06EC06F01200076E07C08AFF86
:100D30008C908C8200F08C92000E026E030E016E7D
:100D400006EC06F0120000D080A002D0FDD700D043
:100D500080B002D0FDD700D080B0FED71200000EC8
:080D6000F86E000112EF04F02F
:020000040020DA
:08000000FFFFFFFFFFFFFFFF00
:020000040030CA
:0E00000000091F1EFF0081FF0FC00FE00F4020
:00000001FF
