:040000003EEF05F0DA
:10080000003738392F3435362A3132332D0D303D0B
:0F0810002B0050726573732061204B65790000D7
:10082000F00E936EF00E8A6E8150F00B286EF00E73
:100830002818D8A4F9D78150F00B286EF00E28188C
:10084000D8A4F2D7820E166EDE0EE82EFED7162E34
:10085000FCD7F00E8A6E8150F00B286EF00E28182F
:10086000D8B4F9D78150F00B286EF00E2818D8B400
:10087000F2D7340E166EF20EE82EFED7162EFCD7E7
:100880008150F00B286EFE0E8A6E8150F00B286EA0
:1008900028C026F0F00E2818D8B40BD0000E276E12
:1008A00003D08150F00B266EF00E2618D8B442D03B
:1008B000F8D7FD0E8A6E8150F00B286E28C026F006
:1008C000F00E2818D8B40BD0010E276E03D081503B
:1008D000F00B266EF00E2618D8B42CD0F8D7FB0EED
:1008E0008A6E8150F00B286E28C026F0F00E281872
:1008F000D8B40BD0020E276E03D08150F00B266EB9
:10090000F00E2618D8B416D0F8D7F70E8A6E81509C
:10091000F00B286E28C026F0F00E2818D8B4B3D7F4
:10092000030E276E03D08150F00B266EF00E2618B2
:10093000D8A4F9D7E00E2818D8A40AD02750040D5F
:10094000010EF324D96E000EF420DA6EDF5012008F
:10095000D00E2818D8A404D02750040D010E0BD0B7
:10096000B00E2818D8A404D02750040D020E03D0CE
:100970002750040D030EF326000EF422E1D7040ED7
:10098000176E0C0E166E340EE82EFED7162EFCD700
:10099000172EFAD71200176E17C016F0F00E1616A3
:1009A0008C500F0B16108C6E8C808C8200F08C9209
:1009B000030E166E980EE82EFED7162EFCD717C023
:1009C00016F0163AF00E16168C500F0B16108C6E91
:1009D0008C8200F08C92080E166ECA0EE82EFED79E
:1009E000162EFCD71200176E17C016F0F00E161652
:1009F0008C500F0B16108C6E8C908C8200F08C92A9
:100A0000030E166E980EE82EFED7162EFCD717C0D2
:100A100016F0163AF00E16168C500F0B16108C6E40
:100A20008C8200F08C92080E166ECA0EE82EFED74D
:100A3000162EFCD71200720ED36EF19E77EC05F0E5
:100A4000000E1A6E120E1B6E080E1C6E000E5BEC72
:100A500005F0C00EF3EC04F010EC04F01F6E2A0E4B
:100A6000CBEC04F02550010D200EF324D96E000EBE
:100A7000F420DA6E1FC0DFFF252AEED74C0EF66E8B
:100A80000B0EF76E000EF86E00EE01F010EE15F092
:100A90000900F5CFEEFFE550E150FAE100EE20F05D
:100AA000090EEE6AE806FDE1000EF86E080EF76E1C
:100AB00000011BEF05F01D6E000E1E6E020E1D6084
:100AC00008D01A500F0B80091E6E1E50F3EC04F074
:100AD00007D01A500F0BC0091E6E1E50F3EC04F025
:100AE0001BC018F01CC019F091EC05F01200000EAC
:100AF000956E270E186EF50EE82EFED7182EFCD731
:100B000000F0020EF3EC04F0280EF3EC04F0010EFA
:100B1000F3EC04F00C0EF3EC04F0060EF3EC04F02E
:100B200012000AD018C0F6FF19C0F7FF0800F550F0
:100B3000CBEC04F0184A192A18C0F6FF19C0F7FFC9
:100B40000800F5500009D8B41200ECD73738392F17
:100B50003435362A3132332D20303D2B323032318C
:010B60000094
:020000040020DA
:08000000FFFFFFFFFFFFFFFF00
:020000040030CA
:0E00000000091F1EFF8181FF0FC00FE00F409F
:00000001FF
