:04000000BEEF3FF020
:107F7C000001C1EF3FF0720ED36E939E8A8E060EF7
:107F8C00086E130E076EAE0EE82EFED7072EFCD72A
:107F9C00082EFAD78A9E010E026EF40E016EDBECEF
:107FAC003FF0C4EF3FF000EF00F0000E046E000E47
:107FBC00036EF4EF3FF0000E066E000E056E054AE0
:107FCC00062A065009E1CC0E055CD8A0F0EF3FF074
:107FDC00F2EF3FF0E5EF3FF0034A042A0150035C57
:107FEC0002500458D8A0FDEF3FF0FFEF3FF0E1EF57
:047FFC003FF0120040
:020000040020DA
:08000000FFFFFFFFFFFFFFFF00
:020000040030CA
:0E000000000A1F1EFF8385FF0FC00FE00F4098
:00000001FF
